{
  "_format": "hh-sol-artifact-1",
  "contractName": "LIMEFaucet",
  "sourceName": "src/backend/contracts/LIMEFaucet.sol",
  "abi": [
    {
      "inputs": [
        {
          "internalType": "contract LIMEToken",
          "name": "_token",
          "type": "address"
        }
      ],
      "stateMutability": "nonpayable",
      "type": "constructor"
    },
    {
      "anonymous": false,
      "inputs": [
        {
          "indexed": false,
          "internalType": "address",
          "name": "user",
          "type": "address"
        },
        {
          "indexed": false,
          "internalType": "address",
          "name": "token",
          "type": "address"
        },
        {
          "indexed": false,
          "internalType": "uint256",
          "name": "amount",
          "type": "uint256"
        }
      ],
      "name": "Claimed",
      "type": "event"
    },
    {
      "anonymous": false,
      "inputs": [
        {
          "indexed": true,
          "internalType": "address",
          "name": "previousOwner",
          "type": "address"
        },
        {
          "indexed": true,
          "internalType": "address",
          "name": "newOwner",
          "type": "address"
        }
      ],
      "name": "OwnershipTransferred",
      "type": "event"
    },
    {
      "inputs": [],
      "name": "amount",
      "outputs": [
        {
          "internalType": "uint256",
          "name": "",
          "type": "uint256"
        }
      ],
      "stateMutability": "view",
      "type": "function"
    },
    {
      "inputs": [],
      "name": "claimFaucet",
      "outputs": [],
      "stateMutability": "payable",
      "type": "function"
    },
    {
      "inputs": [
        {
          "internalType": "address",
          "name": "",
          "type": "address"
        }
      ],
      "name": "claimed",
      "outputs": [
        {
          "internalType": "bool",
          "name": "",
          "type": "bool"
        }
      ],
      "stateMutability": "view",
      "type": "function"
    },
    {
      "inputs": [],
      "name": "name",
      "outputs": [
        {
          "internalType": "string",
          "name": "",
          "type": "string"
        }
      ],
      "stateMutability": "view",
      "type": "function"
    },
    {
      "inputs": [],
      "name": "owner",
      "outputs": [
        {
          "internalType": "address",
          "name": "",
          "type": "address"
        }
      ],
      "stateMutability": "view",
      "type": "function"
    },
    {
      "inputs": [],
      "name": "renounceOwnership",
      "outputs": [],
      "stateMutability": "nonpayable",
      "type": "function"
    },
    {
      "inputs": [],
      "name": "token",
      "outputs": [
        {
          "internalType": "contract LIMEToken",
          "name": "",
          "type": "address"
        }
      ],
      "stateMutability": "view",
      "type": "function"
    },
    {
      "inputs": [],
      "name": "tokensClaimed",
      "outputs": [
        {
          "internalType": "uint256",
          "name": "",
          "type": "uint256"
        }
      ],
      "stateMutability": "view",
      "type": "function"
    },
    {
      "inputs": [
        {
          "internalType": "address",
          "name": "newOwner",
          "type": "address"
        }
      ],
      "name": "transferOwnership",
      "outputs": [],
      "stateMutability": "nonpayable",
      "type": "function"
    },
    {
      "inputs": [],
      "name": "withdraw",
      "outputs": [],
      "stateMutability": "payable",
      "type": "function"
    }
  ],
  "bytecode": "0x60806040523480156200001157600080fd5b50604051620013db380380620013db8339818101604052810190620000379190620002d9565b620000576200004b6200014660201b60201c565b6200014e60201b60201c565b6040518060400160405280600681526020017f466175636574000000000000000000000000000000000000000000000000000081525060019080519060200190620000a492919062000212565b5080600260006101000a81548173ffffffffffffffffffffffffffffffffffffffff021916908373ffffffffffffffffffffffffffffffffffffffff16021790555033600560006101000a81548173ffffffffffffffffffffffffffffffffffffffff021916908373ffffffffffffffffffffffffffffffffffffffff1602179055506802b5e3af16b1880000600381905550600060048190555050620003cc565b600033905090565b60008060009054906101000a900473ffffffffffffffffffffffffffffffffffffffff169050816000806101000a81548173ffffffffffffffffffffffffffffffffffffffff021916908373ffffffffffffffffffffffffffffffffffffffff1602179055508173ffffffffffffffffffffffffffffffffffffffff168173ffffffffffffffffffffffffffffffffffffffff167f8be0079c531659141344cd1fd0a4f28419497f9722a3daafe3b4186f6b6457e060405160405180910390a35050565b82805462000220906200034d565b90600052602060002090601f01602090048101928262000244576000855562000290565b82601f106200025f57805160ff191683800117855562000290565b8280016001018555821562000290579182015b828111156200028f57825182559160200191906001019062000272565b5b5090506200029f9190620002a3565b5090565b5b80821115620002be576000816000905550600101620002a4565b5090565b600081519050620002d381620003b2565b92915050565b600060208284031215620002ec57600080fd5b6000620002fc84828501620002c2565b91505092915050565b600062000312826200032d565b9050919050565b6000620003268262000305565b9050919050565b600073ffffffffffffffffffffffffffffffffffffffff82169050919050565b600060028204905060018216806200036657607f821691505b602082108114156200037d576200037c62000383565b5b50919050565b7f4e487b7100000000000000000000000000000000000000000000000000000000600052602260045260246000fd5b620003bd8162000319565b8114620003c957600080fd5b50565b610fff80620003dc6000396000f3fe6080604052600436106100915760003560e01c8063aa8c217c11610059578063aa8c217c14610117578063b44df72d14610142578063c884ef831461016d578063f2fde38b146101aa578063fc0c546a146101d357610091565b806306fdde03146100965780633ccfd60b146100c15780634fe15335146100cb578063715018a6146100d55780638da5cb5b146100ec575b600080fd5b3480156100a257600080fd5b506100ab6101fe565b6040516100b89190610c15565b60405180910390f35b6100c961028c565b005b6100d3610412565b005b3480156100e157600080fd5b506100ea610714565b005b3480156100f857600080fd5b50610101610728565b60405161010e9190610b3b565b60405180910390f35b34801561012357600080fd5b5061012c610751565b6040516101399190610cb7565b60405180910390f35b34801561014e57600080fd5b50610157610757565b6040516101649190610cb7565b60405180910390f35b34801561017957600080fd5b50610194600480360381019061018f91906109b0565b61075d565b6040516101a19190610bdf565b60405180910390f35b3480156101b657600080fd5b506101d160048036038101906101cc91906109b0565b61077d565b005b3480156101df57600080fd5b506101e8610801565b6040516101f59190610bfa565b60405180910390f35b6001805461020b90610e19565b80601f016020809104026020016040519081016040528092919081815260200182805461023790610e19565b80156102845780601f1061025957610100808354040283529160200191610284565b820191906000526020600020905b81548152906001019060200180831161026757829003601f168201915b505050505081565b610294610827565b600260009054906101000a900473ffffffffffffffffffffffffffffffffffffffff1673ffffffffffffffffffffffffffffffffffffffff1663a9059cbb600560009054906101000a900473ffffffffffffffffffffffffffffffffffffffff16600260009054906101000a900473ffffffffffffffffffffffffffffffffffffffff1673ffffffffffffffffffffffffffffffffffffffff166370a08231306040518263ffffffff1660e01b81526004016103509190610b3b565b60206040518083038186803b15801561036857600080fd5b505afa15801561037c573d6000803e3d6000fd5b505050506040513d601f19601f820116820180604052508101906103a09190610a02565b6040518363ffffffff1660e01b81526004016103bd929190610b56565b602060405180830381600087803b1580156103d757600080fd5b505af11580156103eb573d6000803e3d6000fd5b505050506040513d601f19601f8201168201806040525081019061040f91906109d9565b50565b600660003373ffffffffffffffffffffffffffffffffffffffff1673ffffffffffffffffffffffffffffffffffffffff16815260200190815260200160002060009054906101000a900460ff161561049f576040517f08c379a000000000000000000000000000000000000000000000000000000000815260040161049690610c77565b60405180910390fd5b600354600260009054906101000a900473ffffffffffffffffffffffffffffffffffffffff1673ffffffffffffffffffffffffffffffffffffffff166370a08231306040518263ffffffff1660e01b81526004016104fd9190610b3b565b60206040518083038186803b15801561051557600080fd5b505afa158015610529573d6000803e3d6000fd5b505050506040513d601f19601f8201168201806040525081019061054d9190610a02565b101561058e576040517f08c379a000000000000000000000000000000000000000000000000000000000815260040161058590610c37565b60405180910390fd5b6001600660003373ffffffffffffffffffffffffffffffffffffffff1673ffffffffffffffffffffffffffffffffffffffff16815260200190815260200160002060006101000a81548160ff021916908315150217905550600260009054906101000a900473ffffffffffffffffffffffffffffffffffffffff1673ffffffffffffffffffffffffffffffffffffffff1663a9059cbb336003546040518363ffffffff1660e01b8152600401610645929190610bb6565b602060405180830381600087803b15801561065f57600080fd5b505af1158015610673573d6000803e3d6000fd5b505050506040513d601f19601f8201168201806040525081019061069791906109d9565b50600354600460008282546106ac9190610cee565b925050819055507ff7a40077ff7a04c7e61f6f26fb13774259ddf1b6bce9ecf26a8276cdd399268333600260009054906101000a900473ffffffffffffffffffffffffffffffffffffffff1660035460405161070a93929190610b7f565b60405180910390a1565b61071c610827565b61072660006108a5565b565b60008060009054906101000a900473ffffffffffffffffffffffffffffffffffffffff16905090565b60035481565b60045481565b60066020528060005260406000206000915054906101000a900460ff1681565b610785610827565b600073ffffffffffffffffffffffffffffffffffffffff168173ffffffffffffffffffffffffffffffffffffffff1614156107f5576040517f08c379a00000000000000000000000000000000000000000000000000000000081526004016107ec90610c57565b60405180910390fd5b6107fe816108a5565b50565b600260009054906101000a900473ffffffffffffffffffffffffffffffffffffffff1681565b61082f610969565b73ffffffffffffffffffffffffffffffffffffffff1661084d610728565b73ffffffffffffffffffffffffffffffffffffffff16146108a3576040517f08c379a000000000000000000000000000000000000000000000000000000000815260040161089a90610c97565b60405180910390fd5b565b60008060009054906101000a900473ffffffffffffffffffffffffffffffffffffffff169050816000806101000a81548173ffffffffffffffffffffffffffffffffffffffff021916908373ffffffffffffffffffffffffffffffffffffffff1602179055508173ffffffffffffffffffffffffffffffffffffffff168173ffffffffffffffffffffffffffffffffffffffff167f8be0079c531659141344cd1fd0a4f28419497f9722a3daafe3b4186f6b6457e060405160405180910390a35050565b600033905090565b60008135905061098081610f84565b92915050565b60008151905061099581610f9b565b92915050565b6000815190506109aa81610fb2565b92915050565b6000602082840312156109c257600080fd5b60006109d084828501610971565b91505092915050565b6000602082840312156109eb57600080fd5b60006109f984828501610986565b91505092915050565b600060208284031215610a1457600080fd5b6000610a228482850161099b565b91505092915050565b610a3481610d8c565b82525050565b610a4381610d44565b82525050565b610a5281610d56565b82525050565b610a6181610d9e565b82525050565b6000610a7282610cd2565b610a7c8185610cdd565b9350610a8c818560208601610de6565b610a9581610ea9565b840191505092915050565b6000610aad601d83610cdd565b9150610ab882610eba565b602082019050919050565b6000610ad0602683610cdd565b9150610adb82610ee3565b604082019050919050565b6000610af3601283610cdd565b9150610afe82610f32565b602082019050919050565b6000610b16602083610cdd565b9150610b2182610f5b565b602082019050919050565b610b3581610d82565b82525050565b6000602082019050610b506000830184610a3a565b92915050565b6000604082019050610b6b6000830185610a2b565b610b786020830184610b2c565b9392505050565b6000606082019050610b946000830186610a3a565b610ba16020830185610a3a565b610bae6040830184610b2c565b949350505050565b6000604082019050610bcb6000830185610a3a565b610bd86020830184610b2c565b9392505050565b6000602082019050610bf46000830184610a49565b92915050565b6000602082019050610c0f6000830184610a58565b92915050565b60006020820190508181036000830152610c2f8184610a67565b905092915050565b60006020820190508181036000830152610c5081610aa0565b9050919050565b60006020820190508181036000830152610c7081610ac3565b9050919050565b60006020820190508181036000830152610c9081610ae6565b9050919050565b60006020820190508181036000830152610cb081610b09565b9050919050565b6000602082019050610ccc6000830184610b2c565b92915050565b600081519050919050565b600082825260208201905092915050565b6000610cf982610d82565b9150610d0483610d82565b9250827fffffffffffffffffffffffffffffffffffffffffffffffffffffffffffffffff03821115610d3957610d38610e4b565b5b828201905092915050565b6000610d4f82610d62565b9050919050565b60008115159050919050565b600073ffffffffffffffffffffffffffffffffffffffff82169050919050565b6000819050919050565b6000610d9782610dc2565b9050919050565b6000610da982610db0565b9050919050565b6000610dbb82610d62565b9050919050565b6000610dcd82610dd4565b9050919050565b6000610ddf82610d62565b9050919050565b60005b83811015610e04578082015181840152602081019050610de9565b83811115610e13576000848401525b50505050565b60006002820490506001821680610e3157607f821691505b60208210811415610e4557610e44610e7a565b5b50919050565b7f4e487b7100000000000000000000000000000000000000000000000000000000600052601160045260246000fd5b7f4e487b7100000000000000000000000000000000000000000000000000000000600052602260045260246000fd5b6000601f19601f8301169050919050565b7f6e6f7420656e6f75676820746f6b656e7320696e20636f6e7472616374000000600082015250565b7f4f776e61626c653a206e6577206f776e657220697320746865207a65726f206160008201527f6464726573730000000000000000000000000000000000000000000000000000602082015250565b7f63616e6e6f7420636c61696d2074776963650000000000000000000000000000600082015250565b7f4f776e61626c653a2063616c6c6572206973206e6f7420746865206f776e6572600082015250565b610f8d81610d44565b8114610f9857600080fd5b50565b610fa481610d56565b8114610faf57600080fd5b50565b610fbb81610d82565b8114610fc657600080fd5b5056fea264697066735822122038b8ea54adc928958e485f369a7dfa5401a1692a649f358c3e2c50892050e26e64736f6c63430008040033",
  "linkReferences": {},
  "deployedLinkReferences": {}
}