{
  "_format": "hh-sol-artifact-1",
  "contractName": "LIMESwap",
  "sourceName": "src/backend/contracts/LIMESwap.sol",
  "abi": [
    {
      "inputs": [
        {
          "internalType": "uint256",
          "name": "_tokenPrice",
          "type": "uint256"
        },
        {
          "internalType": "contract LIMEToken",
          "name": "_token",
          "type": "address"
        },
        {
          "internalType": "contract WETH9",
          "name": "_weth",
          "type": "address"
        }
      ],
      "stateMutability": "nonpayable",
      "type": "constructor"
    },
    {
      "anonymous": false,
      "inputs": [
        {
          "indexed": true,
          "internalType": "address",
          "name": "previousOwner",
          "type": "address"
        },
        {
          "indexed": true,
          "internalType": "address",
          "name": "newOwner",
          "type": "address"
        }
      ],
      "name": "OwnershipTransferred",
      "type": "event"
    },
    {
      "anonymous": false,
      "inputs": [
        {
          "indexed": false,
          "internalType": "address",
          "name": "_seller",
          "type": "address"
        },
        {
          "indexed": false,
          "internalType": "uint256",
          "name": "_amount",
          "type": "uint256"
        },
        {
          "indexed": false,
          "internalType": "uint256",
          "name": "_price",
          "type": "uint256"
        }
      ],
      "name": "Purchase",
      "type": "event"
    },
    {
      "anonymous": false,
      "inputs": [
        {
          "indexed": false,
          "internalType": "address",
          "name": "_buyer",
          "type": "address"
        },
        {
          "indexed": false,
          "internalType": "uint256",
          "name": "_amount",
          "type": "uint256"
        },
        {
          "indexed": false,
          "internalType": "uint256",
          "name": "_price",
          "type": "uint256"
        }
      ],
      "name": "Sell",
      "type": "event"
    },
    {
      "inputs": [
        {
          "internalType": "uint256",
          "name": "_numberOfTokens",
          "type": "uint256"
        }
      ],
      "name": "buyTokens",
      "outputs": [],
      "stateMutability": "payable",
      "type": "function"
    },
    {
      "inputs": [],
      "name": "owner",
      "outputs": [
        {
          "internalType": "address",
          "name": "",
          "type": "address"
        }
      ],
      "stateMutability": "view",
      "type": "function"
    },
    {
      "inputs": [],
      "name": "renounceOwnership",
      "outputs": [],
      "stateMutability": "nonpayable",
      "type": "function"
    },
    {
      "inputs": [
        {
          "internalType": "uint256",
          "name": "_numberOfTokens",
          "type": "uint256"
        }
      ],
      "name": "sellTokens",
      "outputs": [],
      "stateMutability": "payable",
      "type": "function"
    },
    {
      "inputs": [],
      "name": "token",
      "outputs": [
        {
          "internalType": "contract LIMEToken",
          "name": "",
          "type": "address"
        }
      ],
      "stateMutability": "view",
      "type": "function"
    },
    {
      "inputs": [],
      "name": "tokenPrice",
      "outputs": [
        {
          "internalType": "uint256",
          "name": "",
          "type": "uint256"
        }
      ],
      "stateMutability": "view",
      "type": "function"
    },
    {
      "inputs": [],
      "name": "tokensSold",
      "outputs": [
        {
          "internalType": "uint256",
          "name": "",
          "type": "uint256"
        }
      ],
      "stateMutability": "view",
      "type": "function"
    },
    {
      "inputs": [
        {
          "internalType": "address",
          "name": "newOwner",
          "type": "address"
        }
      ],
      "name": "transferOwnership",
      "outputs": [],
      "stateMutability": "nonpayable",
      "type": "function"
    },
    {
      "inputs": [],
      "name": "weth",
      "outputs": [
        {
          "internalType": "contract WETH9",
          "name": "",
          "type": "address"
        }
      ],
      "stateMutability": "view",
      "type": "function"
    }
  ],
  "bytecode": "0x60806040523480156200001157600080fd5b506040516200192b3803806200192b83398181016040528101906200003791906200028b565b620000576200004b6200017a60201b60201c565b6200018260201b60201c565b6001808190555081600660006101000a81548173ffffffffffffffffffffffffffffffffffffffff021916908373ffffffffffffffffffffffffffffffffffffffff16021790555080600760006101000a81548173ffffffffffffffffffffffffffffffffffffffff021916908373ffffffffffffffffffffffffffffffffffffffff1602179055508260028190555030600460006101000a81548173ffffffffffffffffffffffffffffffffffffffff021916908373ffffffffffffffffffffffffffffffffffffffff16021790555033600560006101000a81548173ffffffffffffffffffffffffffffffffffffffff021916908373ffffffffffffffffffffffffffffffffffffffff1602179055506000600381905550505050620003a9565b600033905090565b60008060009054906101000a900473ffffffffffffffffffffffffffffffffffffffff169050816000806101000a81548173ffffffffffffffffffffffffffffffffffffffff021916908373ffffffffffffffffffffffffffffffffffffffff1602179055508173ffffffffffffffffffffffffffffffffffffffff168173ffffffffffffffffffffffffffffffffffffffff167f8be0079c531659141344cd1fd0a4f28419497f9722a3daafe3b4186f6b6457e060405160405180910390a35050565b60008151905062000257816200035b565b92915050565b6000815190506200026e8162000375565b92915050565b60008151905062000285816200038f565b92915050565b600080600060608486031215620002a157600080fd5b6000620002b18682870162000274565b9350506020620002c48682870162000246565b9250506040620002d7868287016200025d565b9150509250925092565b6000620002ee8262000331565b9050919050565b6000620003028262000331565b9050919050565b60006200031682620002e1565b9050919050565b60006200032a82620002f5565b9050919050565b600073ffffffffffffffffffffffffffffffffffffffff82169050919050565b6000819050919050565b620003668162000309565b81146200037257600080fd5b50565b62000380816200031d565b81146200038c57600080fd5b50565b6200039a8162000351565b8114620003a657600080fd5b50565b61157280620003b96000396000f3fe6080604052600436106100865760003560e01c8063715018a611610059578063715018a6146101195780637ff9b596146101305780638da5cb5b1461015b578063f2fde38b14610186578063fc0c546a146101af57610086565b80633610724e1461008b5780633fc8cef3146100a7578063518ab2a8146100d25780636c11bcd3146100fd575b600080fd5b6100a560048036038101906100a09190610cba565b6101da565b005b3480156100b357600080fd5b506100bc61053d565b6040516100c99190610fb9565b60405180910390f35b3480156100de57600080fd5b506100e7610563565b6040516100f49190611114565b60405180910390f35b61011760048036038101906101129190610cba565b610569565b005b34801561012557600080fd5b5061012e610984565b005b34801561013c57600080fd5b50610145610998565b6040516101529190611114565b60405180910390f35b34801561016757600080fd5b5061017061099e565b60405161017d9190610eb5565b60405180910390f35b34801561019257600080fd5b506101ad60048036038101906101a89190610c68565b6109c7565b005b3480156101bb57600080fd5b506101c4610a4b565b6040516101d19190610f9e565b60405180910390f35b6101e2610a71565b80600660009054906101000a900473ffffffffffffffffffffffffffffffffffffffff1673ffffffffffffffffffffffffffffffffffffffff166370a08231306040518263ffffffff1660e01b815260040161023e9190610eb5565b60206040518083038186803b15801561025657600080fd5b505afa15801561026a573d6000803e3d6000fd5b505050506040513d601f19601f8201168201806040525081019061028e9190610ce3565b10156102cf576040517f08c379a00000000000000000000000000000000000000000000000000000000081526004016102c690610fd4565b60405180910390fd5b600760009054906101000a900473ffffffffffffffffffffffffffffffffffffffff1673ffffffffffffffffffffffffffffffffffffffff166323b872dd33600460009054906101000a900473ffffffffffffffffffffffffffffffffffffffff166002548561033f9190611196565b6040518463ffffffff1660e01b815260040161035d93929190610ed0565b602060405180830381600087803b15801561037757600080fd5b505af115801561038b573d6000803e3d6000fd5b505050506040513d601f19601f820116820180604052508101906103af9190610c91565b6103ee576040517f08c379a00000000000000000000000000000000000000000000000000000000081526004016103e590611054565b60405180910390fd5b600660009054906101000a900473ffffffffffffffffffffffffffffffffffffffff1673ffffffffffffffffffffffffffffffffffffffff1663a9059cbb33836040518363ffffffff1660e01b815260040161044b929190610f3e565b602060405180830381600087803b15801561046557600080fd5b505af1158015610479573d6000803e3d6000fd5b505050506040513d601f19601f8201168201806040525081019061049d9190610c91565b6104dc576040517f08c379a00000000000000000000000000000000000000000000000000000000081526004016104d390611034565b60405180910390fd5b80600360008282546104ee9190611140565b925050819055507fed7a144fad14804d5c249145e3e0e2b63a9eb455b76aee5bc92d711e9bba3e4a338260025460405161052a93929190610f67565b60405180910390a161053a610ac1565b50565b600760009054906101000a900473ffffffffffffffffffffffffffffffffffffffff1681565b60035481565b610571610a71565b80600660009054906101000a900473ffffffffffffffffffffffffffffffffffffffff1673ffffffffffffffffffffffffffffffffffffffff166370a08231336040518263ffffffff1660e01b81526004016105cd9190610eb5565b60206040518083038186803b1580156105e557600080fd5b505afa1580156105f9573d6000803e3d6000fd5b505050506040513d601f19601f8201168201806040525081019061061d9190610ce3565b101561065e576040517f08c379a0000000000000000000000000000000000000000000000000000000008152600401610655906110d4565b60405180910390fd5b60006002548261066e9190611196565b905080600760009054906101000a900473ffffffffffffffffffffffffffffffffffffffff1673ffffffffffffffffffffffffffffffffffffffff166370a08231306040518263ffffffff1660e01b81526004016106cc9190610eb5565b60206040518083038186803b1580156106e457600080fd5b505afa1580156106f8573d6000803e3d6000fd5b505050506040513d601f19601f8201168201806040525081019061071c9190610ce3565b101561075d576040517f08c379a0000000000000000000000000000000000000000000000000000000008152600401610754906110f4565b60405180910390fd5b600660009054906101000a900473ffffffffffffffffffffffffffffffffffffffff1673ffffffffffffffffffffffffffffffffffffffff166323b872dd3330856040518463ffffffff1660e01b81526004016107bc93929190610f07565b602060405180830381600087803b1580156107d657600080fd5b505af11580156107ea573d6000803e3d6000fd5b505050506040513d601f19601f8201168201806040525081019061080e9190610c91565b61084d576040517f08c379a000000000000000000000000000000000000000000000000000000000815260040161084490611014565b60405180910390fd5b600760009054906101000a900473ffffffffffffffffffffffffffffffffffffffff1673ffffffffffffffffffffffffffffffffffffffff1663a9059cbb33836040518363ffffffff1660e01b81526004016108aa929190610f3e565b602060405180830381600087803b1580156108c457600080fd5b505af11580156108d8573d6000803e3d6000fd5b505050506040513d601f19601f820116820180604052508101906108fc9190610c91565b61093b576040517f08c379a000000000000000000000000000000000000000000000000000000000815260040161093290611094565b60405180910390fd5b7f12cb4648cf3058b17ceeb33e579f8b0bc269fe0843f3900b8e24b6c54871703c338360025460405161097093929190610f67565b60405180910390a150610981610ac1565b50565b61098c610aca565b6109966000610b48565b565b60025481565b60008060009054906101000a900473ffffffffffffffffffffffffffffffffffffffff16905090565b6109cf610aca565b600073ffffffffffffffffffffffffffffffffffffffff168173ffffffffffffffffffffffffffffffffffffffff161415610a3f576040517f08c379a0000000000000000000000000000000000000000000000000000000008152600401610a3690610ff4565b60405180910390fd5b610a4881610b48565b50565b600660009054906101000a900473ffffffffffffffffffffffffffffffffffffffff1681565b60026001541415610ab7576040517f08c379a0000000000000000000000000000000000000000000000000000000008152600401610aae906110b4565b60405180910390fd5b6002600181905550565b60018081905550565b610ad2610c0c565b73ffffffffffffffffffffffffffffffffffffffff16610af061099e565b73ffffffffffffffffffffffffffffffffffffffff1614610b46576040517f08c379a0000000000000000000000000000000000000000000000000000000008152600401610b3d90611074565b60405180910390fd5b565b60008060009054906101000a900473ffffffffffffffffffffffffffffffffffffffff169050816000806101000a81548173ffffffffffffffffffffffffffffffffffffffff021916908373ffffffffffffffffffffffffffffffffffffffff1602179055508173ffffffffffffffffffffffffffffffffffffffff168173ffffffffffffffffffffffffffffffffffffffff167f8be0079c531659141344cd1fd0a4f28419497f9722a3daafe3b4186f6b6457e060405160405180910390a35050565b600033905090565b600081359050610c23816114f7565b92915050565b600081519050610c388161150e565b92915050565b600081359050610c4d81611525565b92915050565b600081519050610c6281611525565b92915050565b600060208284031215610c7a57600080fd5b6000610c8884828501610c14565b91505092915050565b600060208284031215610ca357600080fd5b6000610cb184828501610c29565b91505092915050565b600060208284031215610ccc57600080fd5b6000610cda84828501610c3e565b91505092915050565b600060208284031215610cf557600080fd5b6000610d0384828501610c53565b91505092915050565b610d158161120f565b82525050565b610d24816111c7565b82525050565b610d3381611221565b82525050565b610d4281611245565b82525050565b6000610d55601d8361112f565b9150610d60826112eb565b602082019050919050565b6000610d7860268361112f565b9150610d8382611314565b604082019050919050565b6000610d9b60258361112f565b9150610da682611363565b604082019050919050565b6000610dbe601d8361112f565b9150610dc9826113b2565b602082019050919050565b6000610de160208361112f565b9150610dec826113db565b602082019050919050565b6000610e0460208361112f565b9150610e0f82611404565b602082019050919050565b6000610e27600e8361112f565b9150610e328261142d565b602082019050919050565b6000610e4a601f8361112f565b9150610e5582611456565b602082019050919050565b6000610e6d601c8361112f565b9150610e788261147f565b602082019050919050565b6000610e9060228361112f565b9150610e9b826114a8565b604082019050919050565b610eaf81611205565b82525050565b6000602082019050610eca6000830184610d1b565b92915050565b6000606082019050610ee56000830186610d1b565b610ef26020830185610d0c565b610eff6040830184610ea6565b949350505050565b6000606082019050610f1c6000830186610d1b565b610f296020830185610d1b565b610f366040830184610ea6565b949350505050565b6000604082019050610f536000830185610d1b565b610f606020830184610ea6565b9392505050565b6000606082019050610f7c6000830186610d1b565b610f896020830185610ea6565b610f966040830184610ea6565b949350505050565b6000602082019050610fb36000830184610d2a565b92915050565b6000602082019050610fce6000830184610d39565b92915050565b60006020820190508181036000830152610fed81610d48565b9050919050565b6000602082019050818103600083015261100d81610d6b565b9050919050565b6000602082019050818103600083015261102d81610d8e565b9050919050565b6000602082019050818103600083015261104d81610db1565b9050919050565b6000602082019050818103600083015261106d81610dd4565b9050919050565b6000602082019050818103600083015261108d81610df7565b9050919050565b600060208201905081810360008301526110ad81610e1a565b9050919050565b600060208201905081810360008301526110cd81610e3d565b9050919050565b600060208201905081810360008301526110ed81610e60565b9050919050565b6000602082019050818103600083015261110d81610e83565b9050919050565b60006020820190506111296000830184610ea6565b92915050565b600082825260208201905092915050565b600061114b82611205565b915061115683611205565b9250827fffffffffffffffffffffffffffffffffffffffffffffffffffffffffffffffff0382111561118b5761118a61128d565b5b828201905092915050565b60006111a182611205565b91506111ac83611205565b9250826111bc576111bb6112bc565b5b828204905092915050565b60006111d2826111e5565b9050919050565b60008115159050919050565b600073ffffffffffffffffffffffffffffffffffffffff82169050919050565b6000819050919050565b600061121a82611269565b9050919050565b600061122c82611233565b9050919050565b600061123e826111e5565b9050919050565b600061125082611257565b9050919050565b6000611262826111e5565b9050919050565b60006112748261127b565b9050919050565b6000611286826111e5565b9050919050565b7f4e487b7100000000000000000000000000000000000000000000000000000000600052601160045260246000fd5b7f4e487b7100000000000000000000000000000000000000000000000000000000600052601260045260246000fd5b7f6e6f7420656e6f75676820746f6b656e7320696e20636f6e7472616374000000600082015250565b7f4f776e61626c653a206e6577206f776e657220697320746865207a65726f206160008201527f6464726573730000000000000000000000000000000000000000000000000000602082015250565b7f7478206661696c65642c206e6f7420656e6f75676820746f6b656e732070726f60008201527f7669646564000000000000000000000000000000000000000000000000000000602082015250565b7f746f6b656e206e6f74207472616e7366657272656420746f2075736572000000600082015250565b7f77657468206e6f74207472616e7366657272656420746f20636f6e7472616374600082015250565b7f4f776e61626c653a2063616c6c6572206973206e6f7420746865206f776e6572600082015250565b7f77657468207478206661696c6564000000000000000000000000000000000000600082015250565b7f5265656e7472616e637947756172643a207265656e7472616e742063616c6c00600082015250565b7f796f7520646f6e74206861766520656e6f75676820746f6b656e732100000000600082015250565b7f6e6f7420656e6f756768205745544820696e20736d61727420636f6e7472616360008201527f7421000000000000000000000000000000000000000000000000000000000000602082015250565b611500816111c7565b811461150b57600080fd5b50565b611517816111d9565b811461152257600080fd5b50565b61152e81611205565b811461153957600080fd5b5056fea264697066735822122047697aeb400f2d5eaef4e3176ba9faad00011a8af4154606f7f42c5b8231e31e64736f6c63430008040033",
  "linkReferences": {},
  "deployedLinkReferences": {}
}