{
  "_format": "hh-sol-artifact-1",
  "contractName": "LIME",
  "sourceName": "src/backend/contracts/LIME.sol",
  "abi": [
    {
      "inputs": [
        {
          "internalType": "contract LIMEToken",
          "name": "_token",
          "type": "address"
        },
        {
          "internalType": "address",
          "name": "_creator",
          "type": "address"
        }
      ],
      "stateMutability": "nonpayable",
      "type": "constructor"
    },
    {
      "anonymous": false,
      "inputs": [
        {
          "indexed": false,
          "internalType": "address",
          "name": "user",
          "type": "address"
        },
        {
          "indexed": false,
          "internalType": "uint256",
          "name": "bidAmount",
          "type": "uint256"
        },
        {
          "indexed": false,
          "internalType": "bool",
          "name": "accepted",
          "type": "bool"
        }
      ],
      "name": "AcceptedBidForMessage",
      "type": "event"
    },
    {
      "anonymous": false,
      "inputs": [
        {
          "indexed": false,
          "internalType": "uint256",
          "name": "id",
          "type": "uint256"
        },
        {
          "indexed": false,
          "internalType": "uint256",
          "name": "tipAmount",
          "type": "uint256"
        },
        {
          "indexed": false,
          "internalType": "string",
          "name": "hash",
          "type": "string"
        },
        {
          "indexed": false,
          "internalType": "string",
          "name": "description",
          "type": "string"
        },
        {
          "indexed": false,
          "internalType": "address payable",
          "name": "creator",
          "type": "address"
        }
      ],
      "name": "ImageCreated",
      "type": "event"
    },
    {
      "anonymous": false,
      "inputs": [
        {
          "indexed": false,
          "internalType": "uint256",
          "name": "id",
          "type": "uint256"
        },
        {
          "indexed": false,
          "internalType": "uint256",
          "name": "tipAmount",
          "type": "uint256"
        },
        {
          "indexed": false,
          "internalType": "string",
          "name": "hash",
          "type": "string"
        },
        {
          "indexed": false,
          "internalType": "string",
          "name": "description",
          "type": "string"
        },
        {
          "indexed": true,
          "internalType": "address",
          "name": "tipper",
          "type": "address"
        },
        {
          "indexed": false,
          "internalType": "address payable",
          "name": "creator",
          "type": "address"
        }
      ],
      "name": "ImageTipped",
      "type": "event"
    },
    {
      "anonymous": false,
      "inputs": [
        {
          "indexed": false,
          "internalType": "address",
          "name": "user",
          "type": "address"
        },
        {
          "indexed": false,
          "internalType": "uint256",
          "name": "bidAmount",
          "type": "uint256"
        },
        {
          "indexed": false,
          "internalType": "bool",
          "name": "bidded",
          "type": "bool"
        },
        {
          "indexed": false,
          "internalType": "bool",
          "name": "accepted",
          "type": "bool"
        }
      ],
      "name": "UserBidForMessage",
      "type": "event"
    },
    {
      "inputs": [],
      "name": "Creator",
      "outputs": [
        {
          "internalType": "address payable",
          "name": "",
          "type": "address"
        }
      ],
      "stateMutability": "view",
      "type": "function"
    },
    {
      "inputs": [
        {
          "internalType": "address",
          "name": "_bidAddress",
          "type": "address"
        }
      ],
      "name": "acceptBid",
      "outputs": [],
      "stateMutability": "nonpayable",
      "type": "function"
    },
    {
      "inputs": [
        {
          "internalType": "uint256",
          "name": "_amount",
          "type": "uint256"
        }
      ],
      "name": "bidForMessage",
      "outputs": [],
      "stateMutability": "nonpayable",
      "type": "function"
    },
    {
      "inputs": [],
      "name": "imageCount",
      "outputs": [
        {
          "internalType": "uint256",
          "name": "",
          "type": "uint256"
        }
      ],
      "stateMutability": "view",
      "type": "function"
    },
    {
      "inputs": [
        {
          "internalType": "uint256",
          "name": "",
          "type": "uint256"
        }
      ],
      "name": "images",
      "outputs": [
        {
          "internalType": "uint256",
          "name": "id",
          "type": "uint256"
        },
        {
          "internalType": "uint256",
          "name": "tipAmount",
          "type": "uint256"
        },
        {
          "internalType": "string",
          "name": "hash",
          "type": "string"
        },
        {
          "internalType": "string",
          "name": "description",
          "type": "string"
        },
        {
          "internalType": "address payable",
          "name": "creator",
          "type": "address"
        }
      ],
      "stateMutability": "view",
      "type": "function"
    },
    {
      "inputs": [],
      "name": "name",
      "outputs": [
        {
          "internalType": "string",
          "name": "",
          "type": "string"
        }
      ],
      "stateMutability": "view",
      "type": "function"
    },
    {
      "inputs": [
        {
          "internalType": "uint256",
          "name": "_imgId",
          "type": "uint256"
        },
        {
          "internalType": "uint256",
          "name": "_amount",
          "type": "uint256"
        }
      ],
      "name": "tipImage",
      "outputs": [],
      "stateMutability": "payable",
      "type": "function"
    },
    {
      "inputs": [],
      "name": "token",
      "outputs": [
        {
          "internalType": "contract LIMEToken",
          "name": "",
          "type": "address"
        }
      ],
      "stateMutability": "view",
      "type": "function"
    },
    {
      "inputs": [
        {
          "internalType": "string",
          "name": "_imgHash",
          "type": "string"
        },
        {
          "internalType": "string",
          "name": "_description",
          "type": "string"
        }
      ],
      "name": "uploadImage",
      "outputs": [],
      "stateMutability": "nonpayable",
      "type": "function"
    },
    {
      "inputs": [
        {
          "internalType": "address",
          "name": "",
          "type": "address"
        }
      ],
      "name": "users",
      "outputs": [
        {
          "internalType": "bool",
          "name": "bidded",
          "type": "bool"
        },
        {
          "internalType": "uint256",
          "name": "bidAmount",
          "type": "uint256"
        },
        {
          "internalType": "bool",
          "name": "accepted",
          "type": "bool"
        }
      ],
      "stateMutability": "view",
      "type": "function"
    }
  ],
  "bytecode": "0x60806040523480156200001157600080fd5b50604051620025da380380620025da8339818101604052810190620000379190620001f5565b6040518060400160405280601281526020017f4c494d45206d61696e20636f6e74726163740000000000000000000000000000815250600090805190602001906200008492919062000117565b5081600360006101000a81548173ffffffffffffffffffffffffffffffffffffffff021916908373ffffffffffffffffffffffffffffffffffffffff16021790555080600260006101000a81548173ffffffffffffffffffffffffffffffffffffffff021916908373ffffffffffffffffffffffffffffffffffffffff1602179055506000600181905550505062000317565b82805462000125906200027e565b90600052602060002090601f01602090048101928262000149576000855562000195565b82601f106200016457805160ff191683800117855562000195565b8280016001018555821562000195579182015b828111156200019457825182559160200191906001019062000177565b5b509050620001a49190620001a8565b5090565b5b80821115620001c3576000816000905550600101620001a9565b5090565b600081519050620001d881620002e3565b92915050565b600081519050620001ef81620002fd565b92915050565b600080604083850312156200020957600080fd5b60006200021985828601620001de565b92505060206200022c85828601620001c7565b9150509250929050565b600062000243826200025e565b9050919050565b6000620002578262000236565b9050919050565b600073ffffffffffffffffffffffffffffffffffffffff82169050919050565b600060028204905060018216806200029757607f821691505b60208210811415620002ae57620002ad620002b4565b5b50919050565b7f4e487b7100000000000000000000000000000000000000000000000000000000600052602260045260246000fd5b620002ee8162000236565b8114620002fa57600080fd5b50565b62000308816200024a565b81146200031457600080fd5b50565b6122b380620003276000396000f3fe6080604052600436106100915760003560e01c806392053b631161005957806392053b6314610172578063a87430ba1461019d578063a91b8314146101dc578063ac66082214610205578063fc0c546a1461022e57610091565b806306fdde031461009657806318bee97e146100c157806361078e9e146100ec5780636ba74f17146101085780638485648214610131575b600080fd5b3480156100a257600080fd5b506100ab610259565b6040516100b891906119f8565b60405180910390f35b3480156100cd57600080fd5b506100d66102e7565b6040516100e391906118d8565b60405180910390f35b61010660048036038101906101019190611618565b61030d565b005b34801561011457600080fd5b5061012f600480360381019061012a9190611508565b610800565b005b34801561013d57600080fd5b50610158600480360381019061015391906115c6565b610c57565b604051610169959493929190611c36565b60405180910390f35b34801561017e57600080fd5b50610187610dbd565b6040516101949190611bba565b60405180910390f35b3480156101a957600080fd5b506101c460048036038101906101bf9190611508565b610dc3565b6040516101d3939291906119a6565b60405180910390f35b3480156101e857600080fd5b5061020360048036038101906101fe919061155a565b610e07565b005b34801561021157600080fd5b5061022c600480360381019061022791906115c6565b6110ae565b005b34801561023a57600080fd5b50610243611383565b60405161025091906119dd565b60405180910390f35b6000805461026690611e67565b80601f016020809104026020016040519081016040528092919081815260200182805461029290611e67565b80156102df5780601f106102b4576101008083540402835291602001916102df565b820191906000526020600020905b8154815290600101906020018083116102c257829003601f168201915b505050505081565b600260009054906101000a900473ffffffffffffffffffffffffffffffffffffffff1681565b60008211801561031f57506001548211155b61035e576040517f08c379a000000000000000000000000000000000000000000000000000000000815260040161035590611a7a565b60405180910390fd5b600081116103a1576040517f08c379a000000000000000000000000000000000000000000000000000000000815260040161039890611b7a565b60405180910390fd5b600260009054906101000a900473ffffffffffffffffffffffffffffffffffffffff1673ffffffffffffffffffffffffffffffffffffffff163373ffffffffffffffffffffffffffffffffffffffff161415610432576040517f08c379a000000000000000000000000000000000000000000000000000000000815260040161042990611a1a565b60405180910390fd5b6000600560008481526020019081526020016000206040518060a0016040529081600082015481526020016001820154815260200160028201805461047690611e67565b80601f01602080910402602001604051908101604052809291908181526020018280546104a290611e67565b80156104ef5780601f106104c4576101008083540402835291602001916104ef565b820191906000526020600020905b8154815290600101906020018083116104d257829003601f168201915b5050505050815260200160038201805461050890611e67565b80601f016020809104026020016040519081016040528092919081815260200182805461053490611e67565b80156105815780601f1061055657610100808354040283529160200191610581565b820191906000526020600020905b81548152906001019060200180831161056457829003601f168201915b505050505081526020016004820160009054906101000a900473ffffffffffffffffffffffffffffffffffffffff1673ffffffffffffffffffffffffffffffffffffffff1673ffffffffffffffffffffffffffffffffffffffff16815250509050600360009054906101000a900473ffffffffffffffffffffffffffffffffffffffff1673ffffffffffffffffffffffffffffffffffffffff166323b872dd33600260009054906101000a900473ffffffffffffffffffffffffffffffffffffffff16856040518463ffffffff1660e01b8152600401610663939291906118f3565b602060405180830381600087803b15801561067d57600080fd5b505af1158015610691573d6000803e3d6000fd5b505050506040513d601f19601f820116820180604052508101906106b59190611531565b508181602001516106c69190611d09565b8160200181815250508060056000858152602001908152602001600020600082015181600001556020820151816001015560408201518160020190805190602001906107139291906113a9565b5060608201518160030190805190602001906107309291906113a9565b5060808201518160040160006101000a81548173ffffffffffffffffffffffffffffffffffffffff021916908373ffffffffffffffffffffffffffffffffffffffff1602179055509050503373ffffffffffffffffffffffffffffffffffffffff167f73dce0d6a35ff0b50a4c3b2c9713fdaf207ce970fd056629131f84501bbaf87f848484604001518560600151600260009054906101000a900473ffffffffffffffffffffffffffffffffffffffff166040516107f3959493929190611c36565b60405180910390a2505050565b600260009054906101000a900473ffffffffffffffffffffffffffffffffffffffff1673ffffffffffffffffffffffffffffffffffffffff163373ffffffffffffffffffffffffffffffffffffffff1614610890576040517f08c379a000000000000000000000000000000000000000000000000000000000815260040161088790611afa565b60405180910390fd5b6000600460008373ffffffffffffffffffffffffffffffffffffffff1673ffffffffffffffffffffffffffffffffffffffff16815260200190815260200160002090508060000160009054906101000a900460ff16610924576040517f08c379a000000000000000000000000000000000000000000000000000000000815260040161091b90611a9a565b60405180910390fd5b8060020160009054906101000a900460ff1615610976576040517f08c379a000000000000000000000000000000000000000000000000000000000815260040161096d90611a3a565b60405180910390fd5b8060010154600360009054906101000a900473ffffffffffffffffffffffffffffffffffffffff1673ffffffffffffffffffffffffffffffffffffffff166370a08231846040518263ffffffff1660e01b81526004016109d691906118bd565b60206040518083038186803b1580156109ee57600080fd5b505afa158015610a02573d6000803e3d6000fd5b505050506040513d601f19601f82011682018060405250810190610a2691906115ef565b1015610a67576040517f08c379a0000000000000000000000000000000000000000000000000000000008152600401610a5e90611b1a565b60405180910390fd5b600360009054906101000a900473ffffffffffffffffffffffffffffffffffffffff1673ffffffffffffffffffffffffffffffffffffffff166323b872dd83600260009054906101000a900473ffffffffffffffffffffffffffffffffffffffff1684600101546040518463ffffffff1660e01b8152600401610aec939291906118f3565b602060405180830381600087803b158015610b0657600080fd5b505af1158015610b1a573d6000803e3d6000fd5b505050506040513d601f19601f82011682018060405250810190610b3e9190611531565b5060018160020160006101000a81548160ff02191690831515021790555080600460008473ffffffffffffffffffffffffffffffffffffffff1673ffffffffffffffffffffffffffffffffffffffff1681526020019081526020016000206000820160009054906101000a900460ff168160000160006101000a81548160ff021916908315150217905550600182015481600101556002820160009054906101000a900460ff168160020160006101000a81548160ff0219169083151502179055509050507f3598e06ffaf77ad27f96ecd8a494204c91a9407f1aa57dfa7024399f00375b678282600101548360020160009054906101000a900460ff16604051610c4b9392919061192a565b60405180910390a15050565b6005602052806000526040600020600091509050806000015490806001015490806002018054610c8690611e67565b80601f0160208091040260200160405190810160405280929190818152602001828054610cb290611e67565b8015610cff5780601f10610cd457610100808354040283529160200191610cff565b820191906000526020600020905b815481529060010190602001808311610ce257829003601f168201915b505050505090806003018054610d1490611e67565b80601f0160208091040260200160405190810160405280929190818152602001828054610d4090611e67565b8015610d8d5780601f10610d6257610100808354040283529160200191610d8d565b820191906000526020600020905b815481529060010190602001808311610d7057829003601f168201915b5050505050908060040160009054906101000a900473ffffffffffffffffffffffffffffffffffffffff16905085565b60015481565b60046020528060005260406000206000915090508060000160009054906101000a900460ff16908060010154908060020160009054906101000a900460ff16905083565b600260009054906101000a900473ffffffffffffffffffffffffffffffffffffffff1673ffffffffffffffffffffffffffffffffffffffff163373ffffffffffffffffffffffffffffffffffffffff1614610e97576040517f08c379a0000000000000000000000000000000000000000000000000000000008152600401610e8e90611aba565b60405180910390fd5b6000825111610edb576040517f08c379a0000000000000000000000000000000000000000000000000000000008152600401610ed290611b9a565b60405180910390fd5b6000815111610f1f576040517f08c379a0000000000000000000000000000000000000000000000000000000008152600401610f1690611b5a565b60405180910390fd5b60016000815480929190610f3290611eca565b91905055506040518060a00160405280600154815260200160008152602001838152602001828152602001600260009054906101000a900473ffffffffffffffffffffffffffffffffffffffff1673ffffffffffffffffffffffffffffffffffffffff1681525060056000600154815260200190815260200160002060008201518160000155602082015181600101556040820151816002019080519060200190610fde9291906113a9565b506060820151816003019080519060200190610ffb9291906113a9565b5060808201518160040160006101000a81548173ffffffffffffffffffffffffffffffffffffffff021916908373ffffffffffffffffffffffffffffffffffffffff1602179055509050507f01e7b1d52adbb165676949f0b1d8244de2921c7a2954b273080c65dc91439ea260015460008484600260009054906101000a900473ffffffffffffffffffffffffffffffffffffffff166040516110a2959493929190611bd5565b60405180910390a15050565b600081116110f1576040517f08c379a00000000000000000000000000000000000000000000000000000000081526004016110e890611a5a565b60405180910390fd5b6000600460003373ffffffffffffffffffffffffffffffffffffffff1673ffffffffffffffffffffffffffffffffffffffff16815260200190815260200160002090508060000160009054906101000a900460ff1615611186576040517f08c379a000000000000000000000000000000000000000000000000000000000815260040161117d90611b3a565b60405180910390fd5b81600360009054906101000a900473ffffffffffffffffffffffffffffffffffffffff1673ffffffffffffffffffffffffffffffffffffffff166370a08231336040518263ffffffff1660e01b81526004016111e291906118bd565b60206040518083038186803b1580156111fa57600080fd5b505afa15801561120e573d6000803e3d6000fd5b505050506040513d601f19601f8201168201806040525081019061123291906115ef565b1015611273576040517f08c379a000000000000000000000000000000000000000000000000000000000815260040161126a90611ada565b60405180910390fd5b60018160000160006101000a81548160ff02191690831515021790555081816001018190555080600460003373ffffffffffffffffffffffffffffffffffffffff1673ffffffffffffffffffffffffffffffffffffffff1681526020019081526020016000206000820160009054906101000a900460ff168160000160006101000a81548160ff021916908315150217905550600182015481600101556002820160009054906101000a900460ff168160020160006101000a81548160ff0219169083151502179055509050507fc895fb0bfd5f4a5613417754312b8237575a71ebd879739c2b981e30670ba9ed3383600160006040516113779493929190611961565b60405180910390a15050565b600360009054906101000a900473ffffffffffffffffffffffffffffffffffffffff1681565b8280546113b590611e67565b90600052602060002090601f0160209004810192826113d7576000855561141e565b82601f106113f057805160ff191683800117855561141e565b8280016001018555821561141e579182015b8281111561141d578251825591602001919060010190611402565b5b50905061142b919061142f565b5090565b5b80821115611448576000816000905550600101611430565b5090565b600061145f61145a84611cbc565b611c97565b90508281526020810184848401111561147757600080fd5b611482848285611e25565b509392505050565b60008135905061149981612238565b92915050565b6000815190506114ae8161224f565b92915050565b600082601f8301126114c557600080fd5b81356114d584826020860161144c565b91505092915050565b6000813590506114ed81612266565b92915050565b60008151905061150281612266565b92915050565b60006020828403121561151a57600080fd5b60006115288482850161148a565b91505092915050565b60006020828403121561154357600080fd5b60006115518482850161149f565b91505092915050565b6000806040838503121561156d57600080fd5b600083013567ffffffffffffffff81111561158757600080fd5b611593858286016114b4565b925050602083013567ffffffffffffffff8111156115b057600080fd5b6115bc858286016114b4565b9150509250929050565b6000602082840312156115d857600080fd5b60006115e6848285016114de565b91505092915050565b60006020828403121561160157600080fd5b600061160f848285016114f3565b91505092915050565b6000806040838503121561162b57600080fd5b6000611639858286016114de565b925050602061164a858286016114de565b9150509250929050565b61165d81611db9565b82525050565b61166c81611d71565b82525050565b61167b81611d5f565b82525050565b61168a81611d83565b82525050565b61169981611dcb565b82525050565b6116a881611def565b82525050565b60006116b982611ced565b6116c38185611cf8565b93506116d3818560208601611e34565b6116dc81611fa0565b840191505092915050565b60006116f4601583611cf8565b91506116ff82611fb1565b602082019050919050565b6000611717602883611cf8565b915061172282611fda565b604082019050919050565b600061173a601183611cf8565b915061174582612029565b602082019050919050565b600061175d601783611cf8565b915061176882612052565b602082019050919050565b6000611780601083611cf8565b915061178b8261207b565b602082019050919050565b60006117a3601883611cf8565b91506117ae826120a4565b602082019050919050565b60006117c6602483611cf8565b91506117d1826120cd565b604082019050919050565b60006117e9601d83611cf8565b91506117f48261211c565b602082019050919050565b600061180c602183611cf8565b915061181782612145565b604082019050919050565b600061182f601f83611cf8565b915061183a82612194565b602082019050919050565b6000611852601b83611cf8565b915061185d826121bd565b602082019050919050565b6000611875601183611cf8565b9150611880826121e6565b602082019050919050565b6000611898601583611cf8565b91506118a38261220f565b602082019050919050565b6118b781611daf565b82525050565b60006020820190506118d26000830184611672565b92915050565b60006020820190506118ed6000830184611663565b92915050565b60006060820190506119086000830186611672565b6119156020830185611654565b61192260408301846118ae565b949350505050565b600060608201905061193f6000830186611672565b61194c60208301856118ae565b6119596040830184611681565b949350505050565b60006080820190506119766000830187611672565b61198360208301866118ae565b6119906040830185611681565b61199d6060830184611681565b95945050505050565b60006060820190506119bb6000830186611681565b6119c860208301856118ae565b6119d56040830184611681565b949350505050565b60006020820190506119f26000830184611690565b92915050565b60006020820190508181036000830152611a1281846116ae565b905092915050565b60006020820190508181036000830152611a33816116e7565b9050919050565b60006020820190508181036000830152611a538161170a565b9050919050565b60006020820190508181036000830152611a738161172d565b9050919050565b60006020820190508181036000830152611a9381611750565b9050919050565b60006020820190508181036000830152611ab381611773565b9050919050565b60006020820190508181036000830152611ad381611796565b9050919050565b60006020820190508181036000830152611af3816117b9565b9050919050565b60006020820190508181036000830152611b13816117dc565b9050919050565b60006020820190508181036000830152611b33816117ff565b9050919050565b60006020820190508181036000830152611b5381611822565b9050919050565b60006020820190508181036000830152611b7381611845565b9050919050565b60006020820190508181036000830152611b9381611868565b9050919050565b60006020820190508181036000830152611bb38161188b565b9050919050565b6000602082019050611bcf60008301846118ae565b92915050565b600060a082019050611bea60008301886118ae565b611bf7602083018761169f565b8181036040830152611c0981866116ae565b90508181036060830152611c1d81856116ae565b9050611c2c6080830184611663565b9695505050505050565b600060a082019050611c4b60008301886118ae565b611c5860208301876118ae565b8181036040830152611c6a81866116ae565b90508181036060830152611c7e81856116ae565b9050611c8d6080830184611663565b9695505050505050565b6000611ca1611cb2565b9050611cad8282611e99565b919050565b6000604051905090565b600067ffffffffffffffff821115611cd757611cd6611f71565b5b611ce082611fa0565b9050602081019050919050565b600081519050919050565b600082825260208201905092915050565b6000611d1482611daf565b9150611d1f83611daf565b9250827fffffffffffffffffffffffffffffffffffffffffffffffffffffffffffffffff03821115611d5457611d53611f13565b5b828201905092915050565b6000611d6a82611d8f565b9050919050565b6000611d7c82611d8f565b9050919050565b60008115159050919050565b600073ffffffffffffffffffffffffffffffffffffffff82169050919050565b6000819050919050565b6000611dc482611e01565b9050919050565b6000611dd682611ddd565b9050919050565b6000611de882611d8f565b9050919050565b6000611dfa82611daf565b9050919050565b6000611e0c82611e13565b9050919050565b6000611e1e82611d8f565b9050919050565b82818337600083830152505050565b60005b83811015611e52578082015181840152602081019050611e37565b83811115611e61576000848401525b50505050565b60006002820490506001821680611e7f57607f821691505b60208210811415611e9357611e92611f42565b5b50919050565b611ea282611fa0565b810181811067ffffffffffffffff82111715611ec157611ec0611f71565b5b80604052505050565b6000611ed582611daf565b91507fffffffffffffffffffffffffffffffffffffffffffffffffffffffffffffffff821415611f0857611f07611f13565b5b600182019050919050565b7f4e487b7100000000000000000000000000000000000000000000000000000000600052601160045260246000fd5b7f4e487b7100000000000000000000000000000000000000000000000000000000600052602260045260246000fd5b7f4e487b7100000000000000000000000000000000000000000000000000000000600052604160045260246000fd5b6000601f19601f8301169050919050565b7f63616e6e6f7420746970206f776e20696d616765210000000000000000000000600082015250565b7f616c726561647920616363657074656420746865206269642066726f6d20746860008201527f6973207573657221000000000000000000000000000000000000000000000000602082015250565b7f6e6f20616d6f756e742062696464656421000000000000000000000000000000600082015250565b7f636f6e74656e7420646f6573206e6f7420657869737421000000000000000000600082015250565b7f7573657220646964206e6f742062696400000000000000000000000000000000600082015250565b7f796f7520617265206e6f74207468652063726561746f72210000000000000000600082015250565b7f796f7520646f206e6f74206861766520656e6f75676820666f7220796f75722060008201527f6269642100000000000000000000000000000000000000000000000000000000602082015250565b7f6f6e6c792043726561746f722063616e20616363657074206269647321000000600082015250565b7f7573657220646f6573206e6f74206861766520656e6f75676820746f6b656e7360008201527f2100000000000000000000000000000000000000000000000000000000000000602082015250565b7f796f7527766520616c726561647920706c6163656420796f7572206269642100600082015250565b7f706c656173652070726f76696465206465736372697074696f6e210000000000600082015250565b7f6e6f20616d6f756e742074697070656421000000000000000000000000000000600082015250565b7f6e6f20696d6720686173682070726f7669646564210000000000000000000000600082015250565b61224181611d5f565b811461224c57600080fd5b50565b61225881611d83565b811461226357600080fd5b50565b61226f81611daf565b811461227a57600080fd5b5056fea2646970667358221220e899d26ee38f40bfb91b0c1bdf5c185e2955293ab5880244e039862cdc8374f564736f6c63430008040033",
  "linkReferences": {},
  "deployedLinkReferences": {}
}