{
  "_format": "hh-sol-artifact-1",
  "contractName": "LIMEnft",
  "sourceName": "src/backend/contracts/LIMEnft.sol",
  "abi": [
    {
      "inputs": [],
      "stateMutability": "nonpayable",
      "type": "constructor"
    },
    {
      "anonymous": false,
      "inputs": [
        {
          "indexed": true,
          "internalType": "address",
          "name": "owner",
          "type": "address"
        },
        {
          "indexed": true,
          "internalType": "address",
          "name": "approved",
          "type": "address"
        },
        {
          "indexed": true,
          "internalType": "uint256",
          "name": "tokenId",
          "type": "uint256"
        }
      ],
      "name": "Approval",
      "type": "event"
    },
    {
      "anonymous": false,
      "inputs": [
        {
          "indexed": true,
          "internalType": "address",
          "name": "owner",
          "type": "address"
        },
        {
          "indexed": true,
          "internalType": "address",
          "name": "operator",
          "type": "address"
        },
        {
          "indexed": false,
          "internalType": "bool",
          "name": "approved",
          "type": "bool"
        }
      ],
      "name": "ApprovalForAll",
      "type": "event"
    },
    {
      "anonymous": false,
      "inputs": [
        {
          "indexed": true,
          "internalType": "address",
          "name": "from",
          "type": "address"
        },
        {
          "indexed": true,
          "internalType": "address",
          "name": "to",
          "type": "address"
        },
        {
          "indexed": true,
          "internalType": "uint256",
          "name": "tokenId",
          "type": "uint256"
        }
      ],
      "name": "Transfer",
      "type": "event"
    },
    {
      "inputs": [
        {
          "internalType": "address",
          "name": "_minter",
          "type": "address"
        }
      ],
      "name": "_mint",
      "outputs": [
        {
          "internalType": "uint256",
          "name": "",
          "type": "uint256"
        }
      ],
      "stateMutability": "nonpayable",
      "type": "function"
    },
    {
      "inputs": [
        {
          "internalType": "address",
          "name": "to",
          "type": "address"
        },
        {
          "internalType": "uint256",
          "name": "tokenId",
          "type": "uint256"
        }
      ],
      "name": "approve",
      "outputs": [],
      "stateMutability": "nonpayable",
      "type": "function"
    },
    {
      "inputs": [
        {
          "internalType": "address",
          "name": "owner",
          "type": "address"
        }
      ],
      "name": "balanceOf",
      "outputs": [
        {
          "internalType": "uint256",
          "name": "",
          "type": "uint256"
        }
      ],
      "stateMutability": "view",
      "type": "function"
    },
    {
      "inputs": [
        {
          "internalType": "uint256",
          "name": "tokenId",
          "type": "uint256"
        }
      ],
      "name": "getApproved",
      "outputs": [
        {
          "internalType": "address",
          "name": "",
          "type": "address"
        }
      ],
      "stateMutability": "view",
      "type": "function"
    },
    {
      "inputs": [
        {
          "internalType": "address",
          "name": "owner",
          "type": "address"
        },
        {
          "internalType": "address",
          "name": "operator",
          "type": "address"
        }
      ],
      "name": "isApprovedForAll",
      "outputs": [
        {
          "internalType": "bool",
          "name": "",
          "type": "bool"
        }
      ],
      "stateMutability": "view",
      "type": "function"
    },
    {
      "inputs": [],
      "name": "name",
      "outputs": [
        {
          "internalType": "string",
          "name": "",
          "type": "string"
        }
      ],
      "stateMutability": "view",
      "type": "function"
    },
    {
      "inputs": [
        {
          "internalType": "uint256",
          "name": "tokenId",
          "type": "uint256"
        }
      ],
      "name": "ownerOf",
      "outputs": [
        {
          "internalType": "address",
          "name": "",
          "type": "address"
        }
      ],
      "stateMutability": "view",
      "type": "function"
    },
    {
      "inputs": [
        {
          "internalType": "address",
          "name": "from",
          "type": "address"
        },
        {
          "internalType": "address",
          "name": "to",
          "type": "address"
        },
        {
          "internalType": "uint256",
          "name": "tokenId",
          "type": "uint256"
        }
      ],
      "name": "safeTransferFrom",
      "outputs": [],
      "stateMutability": "nonpayable",
      "type": "function"
    },
    {
      "inputs": [
        {
          "internalType": "address",
          "name": "from",
          "type": "address"
        },
        {
          "internalType": "address",
          "name": "to",
          "type": "address"
        },
        {
          "internalType": "uint256",
          "name": "tokenId",
          "type": "uint256"
        },
        {
          "internalType": "bytes",
          "name": "data",
          "type": "bytes"
        }
      ],
      "name": "safeTransferFrom",
      "outputs": [],
      "stateMutability": "nonpayable",
      "type": "function"
    },
    {
      "inputs": [
        {
          "internalType": "address",
          "name": "operator",
          "type": "address"
        },
        {
          "internalType": "bool",
          "name": "approved",
          "type": "bool"
        }
      ],
      "name": "setApprovalForAll",
      "outputs": [],
      "stateMutability": "nonpayable",
      "type": "function"
    },
    {
      "inputs": [
        {
          "internalType": "bytes4",
          "name": "interfaceId",
          "type": "bytes4"
        }
      ],
      "name": "supportsInterface",
      "outputs": [
        {
          "internalType": "bool",
          "name": "",
          "type": "bool"
        }
      ],
      "stateMutability": "view",
      "type": "function"
    },
    {
      "inputs": [],
      "name": "symbol",
      "outputs": [
        {
          "internalType": "string",
          "name": "",
          "type": "string"
        }
      ],
      "stateMutability": "view",
      "type": "function"
    },
    {
      "inputs": [
        {
          "internalType": "uint256",
          "name": "index",
          "type": "uint256"
        }
      ],
      "name": "tokenByIndex",
      "outputs": [
        {
          "internalType": "uint256",
          "name": "",
          "type": "uint256"
        }
      ],
      "stateMutability": "view",
      "type": "function"
    },
    {
      "inputs": [],
      "name": "tokenCount",
      "outputs": [
        {
          "internalType": "uint256",
          "name": "",
          "type": "uint256"
        }
      ],
      "stateMutability": "view",
      "type": "function"
    },
    {
      "inputs": [
        {
          "internalType": "address",
          "name": "owner",
          "type": "address"
        },
        {
          "internalType": "uint256",
          "name": "index",
          "type": "uint256"
        }
      ],
      "name": "tokenOfOwnerByIndex",
      "outputs": [
        {
          "internalType": "uint256",
          "name": "",
          "type": "uint256"
        }
      ],
      "stateMutability": "view",
      "type": "function"
    },
    {
      "inputs": [],
      "name": "tokenSupply",
      "outputs": [
        {
          "internalType": "uint256",
          "name": "",
          "type": "uint256"
        }
      ],
      "stateMutability": "view",
      "type": "function"
    },
    {
      "inputs": [
        {
          "internalType": "uint256",
          "name": "tokenId",
          "type": "uint256"
        }
      ],
      "name": "tokenURI",
      "outputs": [
        {
          "internalType": "string",
          "name": "",
          "type": "string"
        }
      ],
      "stateMutability": "view",
      "type": "function"
    },
    {
      "inputs": [],
      "name": "totalSupply",
      "outputs": [
        {
          "internalType": "uint256",
          "name": "",
          "type": "uint256"
        }
      ],
      "stateMutability": "view",
      "type": "function"
    },
    {
      "inputs": [
        {
          "internalType": "address",
          "name": "from",
          "type": "address"
        },
        {
          "internalType": "address",
          "name": "to",
          "type": "address"
        },
        {
          "internalType": "uint256",
          "name": "tokenId",
          "type": "uint256"
        }
      ],
      "name": "transferFrom",
      "outputs": [],
      "stateMutability": "nonpayable",
      "type": "function"
    }
  ],
  "bytecode": "0x60806040526064600c556040518060800160405280605181526020016200387560519139600d90805190602001906200003a92919062000145565b506040518060400160405280600581526020017f2e6a736f6e000000000000000000000000000000000000000000000000000000815250600e90805190602001906200008892919062000145565b503480156200009657600080fd5b506040518060400160405280600781526020017f4c494d456e6674000000000000000000000000000000000000000000000000008152506040518060400160405280600481526020017f4c494d450000000000000000000000000000000000000000000000000000000081525081600090805190602001906200011b92919062000145565b5080600190805190602001906200013492919062000145565b5050506000600b819055506200025a565b8280546200015390620001f5565b90600052602060002090601f016020900481019282620001775760008555620001c3565b82601f106200019257805160ff1916838001178555620001c3565b82800160010185558215620001c3579182015b82811115620001c2578251825591602001919060010190620001a5565b5b509050620001d29190620001d6565b5090565b5b80821115620001f1576000816000905550600101620001d7565b5090565b600060028204905060018216806200020e57607f821691505b602082108114156200022557620002246200022b565b5b50919050565b7f4e487b7100000000000000000000000000000000000000000000000000000000600052602260045260246000fd5b61360b806200026a6000396000f3fe608060405234801561001057600080fd5b50600436106101215760003560e01c80634f6ccce7116100ad5780639f181b5e116100715780639f181b5e14610342578063a22cb46514610360578063b88d4fde1461037c578063c87b56dd14610398578063e985e9c5146103c857610121565b80634f6ccce7146102765780636352211e146102a657806370a08231146102d65780637824407f1461030657806395d89b411461032457610121565b806309aa7b67116100f457806309aa7b67146101c057806318160ddd146101f057806323b872dd1461020e5780632f745c591461022a57806342842e0e1461025a57610121565b806301ffc9a71461012657806306fdde0314610156578063081812fc14610174578063095ea7b3146101a4575b600080fd5b610140600480360381019061013b9190612701565b6103f8565b60405161014d9190612bb7565b60405180910390f35b61015e61040a565b60405161016b9190612bd2565b60405180910390f35b61018e60048036038101906101899190612753565b61049c565b60405161019b9190612b50565b60405180910390f35b6101be60048036038101906101b991906126c5565b6104e2565b005b6101da60048036038101906101d5919061255a565b6105fa565b6040516101e79190612df4565b60405180910390f35b6101f86106b2565b6040516102059190612df4565b60405180910390f35b610228600480360381019061022391906125bf565b6106bf565b005b610244600480360381019061023f91906126c5565b61071f565b6040516102519190612df4565b60405180910390f35b610274600480360381019061026f91906125bf565b6107c4565b005b610290600480360381019061028b9190612753565b6107e4565b60405161029d9190612df4565b60405180910390f35b6102c060048036038101906102bb9190612753565b61087b565b6040516102cd9190612b50565b60405180910390f35b6102f060048036038101906102eb919061255a565b610902565b6040516102fd9190612df4565b60405180910390f35b61030e6109ba565b60405161031b9190612df4565b60405180910390f35b61032c6109c0565b6040516103399190612bd2565b60405180910390f35b61034a610a52565b6040516103579190612df4565b60405180910390f35b61037a60048036038101906103759190612689565b610a58565b005b6103966004803603810190610391919061260e565b610a6e565b005b6103b260048036038101906103ad9190612753565b610ad0565b6040516103bf9190612bd2565b60405180910390f35b6103e260048036038101906103dd9190612583565b610ae2565b6040516103ef9190612bb7565b60405180910390f35b600061040382610b76565b9050919050565b60606000805461041990612ffd565b80601f016020809104026020016040519081016040528092919081815260200182805461044590612ffd565b80156104925780601f1061046757610100808354040283529160200191610492565b820191906000526020600020905b81548152906001019060200180831161047557829003601f168201915b5050505050905090565b60006104a782610bf0565b6004600083815260200190815260200160002060009054906101000a900473ffffffffffffffffffffffffffffffffffffffff169050919050565b60006104ed8261087b565b90508073ffffffffffffffffffffffffffffffffffffffff168373ffffffffffffffffffffffffffffffffffffffff16141561055e576040517f08c379a000000000000000000000000000000000000000000000000000000000815260040161055590612d74565b60405180910390fd5b8073ffffffffffffffffffffffffffffffffffffffff1661057d610c3b565b73ffffffffffffffffffffffffffffffffffffffff1614806105ac57506105ab816105a6610c3b565b610ae2565b5b6105eb576040517f08c379a00000000000000000000000000000000000000000000000000000000081526004016105e290612d94565b60405180910390fd5b6105f58383610c43565b505050565b6000600b600081548092919061060f90613060565b9190505550600c54600b54111561065b576040517f08c379a000000000000000000000000000000000000000000000000000000000815260040161065290612cf4565b60405180910390fd5b61066782600b54610cfc565b6000600d610676600b54610d1a565b600e60405160200161068a93929190612b1f565b60405160208183030381529060405290506106a7600b5482610e3e565b600b54915050919050565b6000600880549050905090565b6106d06106ca610c3b565b82610eb2565b61070f576040517f08c379a000000000000000000000000000000000000000000000000000000000815260040161070690612bf4565b60405180910390fd5b61071a838383610f47565b505050565b600061072a83610902565b821061076b576040517f08c379a000000000000000000000000000000000000000000000000000000000815260040161076290612c14565b60405180910390fd5b600660008473ffffffffffffffffffffffffffffffffffffffff1673ffffffffffffffffffffffffffffffffffffffff168152602001908152602001600020600083815260200190815260200160002054905092915050565b6107df83838360405180602001604052806000815250610a6e565b505050565b60006107ee6106b2565b821061082f576040517f08c379a000000000000000000000000000000000000000000000000000000000815260040161082690612db4565b60405180910390fd5b60088281548110610869577f4e487b7100000000000000000000000000000000000000000000000000000000600052603260045260246000fd5b90600052602060002001549050919050565b60008061088783611241565b9050600073ffffffffffffffffffffffffffffffffffffffff168173ffffffffffffffffffffffffffffffffffffffff1614156108f9576040517f08c379a00000000000000000000000000000000000000000000000000000000081526004016108f090612d54565b60405180910390fd5b80915050919050565b60008073ffffffffffffffffffffffffffffffffffffffff168273ffffffffffffffffffffffffffffffffffffffff161415610973576040517f08c379a000000000000000000000000000000000000000000000000000000000815260040161096a90612cd4565b60405180910390fd5b600360008373ffffffffffffffffffffffffffffffffffffffff1673ffffffffffffffffffffffffffffffffffffffff168152602001908152602001600020549050919050565b600c5481565b6060600180546109cf90612ffd565b80601f01602080910402602001604051908101604052809291908181526020018280546109fb90612ffd565b8015610a485780601f10610a1d57610100808354040283529160200191610a48565b820191906000526020600020905b815481529060010190602001808311610a2b57829003601f168201915b5050505050905090565b600b5481565b610a6a610a63610c3b565b838361127e565b5050565b610a7f610a79610c3b565b83610eb2565b610abe576040517f08c379a0000000000000000000000000000000000000000000000000000000008152600401610ab590612bf4565b60405180910390fd5b610aca848484846113eb565b50505050565b6060610adb82611447565b9050919050565b6000600560008473ffffffffffffffffffffffffffffffffffffffff1673ffffffffffffffffffffffffffffffffffffffff16815260200190815260200160002060008373ffffffffffffffffffffffffffffffffffffffff1673ffffffffffffffffffffffffffffffffffffffff16815260200190815260200160002060009054906101000a900460ff16905092915050565b60007f780e9d63000000000000000000000000000000000000000000000000000000007bffffffffffffffffffffffffffffffffffffffffffffffffffffffff1916827bffffffffffffffffffffffffffffffffffffffffffffffffffffffff19161480610be95750610be88261155a565b5b9050919050565b610bf98161163c565b610c38576040517f08c379a0000000000000000000000000000000000000000000000000000000008152600401610c2f90612d54565b60405180910390fd5b50565b600033905090565b816004600083815260200190815260200160002060006101000a81548173ffffffffffffffffffffffffffffffffffffffff021916908373ffffffffffffffffffffffffffffffffffffffff160217905550808273ffffffffffffffffffffffffffffffffffffffff16610cb68361087b565b73ffffffffffffffffffffffffffffffffffffffff167f8c5be1e5ebec7d5bd14f71427d1e84f3dd0314c0f7b2291e5b200ac8c7c3b92560405160405180910390a45050565b610d1682826040518060200160405280600081525061167d565b5050565b606060006001610d29846116d8565b01905060008167ffffffffffffffff811115610d6e577f4e487b7100000000000000000000000000000000000000000000000000000000600052604160045260246000fd5b6040519080825280601f01601f191660200182016040528015610da05781602001600182028036833780820191505090505b509050600082602001820190505b600115610e33578080600190039150507f3031323334353637383961626364656600000000000000000000000000000000600a86061a8153600a8581610e1d577f4e487b7100000000000000000000000000000000000000000000000000000000600052601260045260246000fd5b0494506000851415610e2e57610e33565b610dae565b819350505050919050565b610e478261163c565b610e86576040517f08c379a0000000000000000000000000000000000000000000000000000000008152600401610e7d90612d14565b60405180910390fd5b80600a60008481526020019081526020016000209080519060200190610ead9291906123e6565b505050565b600080610ebe8361087b565b90508073ffffffffffffffffffffffffffffffffffffffff168473ffffffffffffffffffffffffffffffffffffffff161480610f005750610eff8185610ae2565b5b80610f3e57508373ffffffffffffffffffffffffffffffffffffffff16610f268461049c565b73ffffffffffffffffffffffffffffffffffffffff16145b91505092915050565b8273ffffffffffffffffffffffffffffffffffffffff16610f678261087b565b73ffffffffffffffffffffffffffffffffffffffff1614610fbd576040517f08c379a0000000000000000000000000000000000000000000000000000000008152600401610fb490612c54565b60405180910390fd5b600073ffffffffffffffffffffffffffffffffffffffff168273ffffffffffffffffffffffffffffffffffffffff16141561102d576040517f08c379a000000000000000000000000000000000000000000000000000000000815260040161102490612c94565b60405180910390fd5b61103a838383600161190f565b8273ffffffffffffffffffffffffffffffffffffffff1661105a8261087b565b73ffffffffffffffffffffffffffffffffffffffff16146110b0576040517f08c379a00000000000000000000000000000000000000000000000000000000081526004016110a790612c54565b60405180910390fd5b6004600082815260200190815260200160002060006101000a81549073ffffffffffffffffffffffffffffffffffffffff02191690556001600360008573ffffffffffffffffffffffffffffffffffffffff1673ffffffffffffffffffffffffffffffffffffffff168152602001908152602001600020600082825403925050819055506001600360008473ffffffffffffffffffffffffffffffffffffffff1673ffffffffffffffffffffffffffffffffffffffff16815260200190815260200160002060008282540192505081905550816002600083815260200190815260200160002060006101000a81548173ffffffffffffffffffffffffffffffffffffffff021916908373ffffffffffffffffffffffffffffffffffffffff160217905550808273ffffffffffffffffffffffffffffffffffffffff168473ffffffffffffffffffffffffffffffffffffffff167fddf252ad1be2c89b69c2b068fc378daa952ba7f163c4a11628f55a4df523b3ef60405160405180910390a461123c8383836001611921565b505050565b60006002600083815260200190815260200160002060009054906101000a900473ffffffffffffffffffffffffffffffffffffffff169050919050565b8173ffffffffffffffffffffffffffffffffffffffff168373ffffffffffffffffffffffffffffffffffffffff1614156112ed576040517f08c379a00000000000000000000000000000000000000000000000000000000081526004016112e490612cb4565b60405180910390fd5b80600560008573ffffffffffffffffffffffffffffffffffffffff1673ffffffffffffffffffffffffffffffffffffffff16815260200190815260200160002060008473ffffffffffffffffffffffffffffffffffffffff1673ffffffffffffffffffffffffffffffffffffffff16815260200190815260200160002060006101000a81548160ff0219169083151502179055508173ffffffffffffffffffffffffffffffffffffffff168373ffffffffffffffffffffffffffffffffffffffff167f17307eab39ab6107e8899845ad3d59bd9653f200f220920489ca2b5937696c31836040516113de9190612bb7565b60405180910390a3505050565b6113f6848484610f47565b61140284848484611927565b611441576040517f08c379a000000000000000000000000000000000000000000000000000000000815260040161143890612c34565b60405180910390fd5b50505050565b606061145282610bf0565b6000600a6000848152602001908152602001600020805461147290612ffd565b80601f016020809104026020016040519081016040528092919081815260200182805461149e90612ffd565b80156114eb5780601f106114c0576101008083540402835291602001916114eb565b820191906000526020600020905b8154815290600101906020018083116114ce57829003601f168201915b5050505050905060006114fc611abe565b9050600081511415611512578192505050611555565b60008251111561154757808260405160200161152f929190612afb565b60405160208183030381529060405292505050611555565b61155084611ad5565b925050505b919050565b60007f80ac58cd000000000000000000000000000000000000000000000000000000007bffffffffffffffffffffffffffffffffffffffffffffffffffffffff1916827bffffffffffffffffffffffffffffffffffffffffffffffffffffffff1916148061162557507f5b5e139f000000000000000000000000000000000000000000000000000000007bffffffffffffffffffffffffffffffffffffffffffffffffffffffff1916827bffffffffffffffffffffffffffffffffffffffffffffffffffffffff1916145b80611635575061163482611b3d565b5b9050919050565b60008073ffffffffffffffffffffffffffffffffffffffff1661165e83611241565b73ffffffffffffffffffffffffffffffffffffffff1614159050919050565b6116878383611ba7565b6116946000848484611927565b6116d3576040517f08c379a00000000000000000000000000000000000000000000000000000000081526004016116ca90612c34565b60405180910390fd5b505050565b600080600090507a184f03e93ff9f4daa797ed6e38ed64bf6a1f010000000000000000831061175c577a184f03e93ff9f4daa797ed6e38ed64bf6a1f0100000000000000008381611752577f4e487b7100000000000000000000000000000000000000000000000000000000600052601260045260246000fd5b0492506040810190505b6d04ee2d6d415b85acef810000000083106117bf576d04ee2d6d415b85acef810000000083816117b5577f4e487b7100000000000000000000000000000000000000000000000000000000600052601260045260246000fd5b0492506020810190505b662386f26fc10000831061181457662386f26fc10000838161180a577f4e487b7100000000000000000000000000000000000000000000000000000000600052601260045260246000fd5b0492506010810190505b6305f5e1008310611863576305f5e1008381611859577f4e487b7100000000000000000000000000000000000000000000000000000000600052601260045260246000fd5b0492506008810190505b61271083106118ae5761271083816118a4577f4e487b7100000000000000000000000000000000000000000000000000000000600052601260045260246000fd5b0492506004810190505b606483106118f757606483816118ed577f4e487b7100000000000000000000000000000000000000000000000000000000600052601260045260246000fd5b0492506002810190505b600a8310611906576001810190505b80915050919050565b61191b84848484611dc5565b50505050565b50505050565b60006119488473ffffffffffffffffffffffffffffffffffffffff16611f25565b15611ab1578373ffffffffffffffffffffffffffffffffffffffff1663150b7a02611971610c3b565b8786866040518563ffffffff1660e01b81526004016119939493929190612b6b565b602060405180830381600087803b1580156119ad57600080fd5b505af19250505080156119de57506040513d601f19601f820116820180604052508101906119db919061272a565b60015b611a61573d8060008114611a0e576040519150601f19603f3d011682016040523d82523d6000602084013e611a13565b606091505b50600081511415611a59576040517f08c379a0000000000000000000000000000000000000000000000000000000008152600401611a5090612c34565b60405180910390fd5b805181602001fd5b63150b7a0260e01b7bffffffffffffffffffffffffffffffffffffffffffffffffffffffff1916817bffffffffffffffffffffffffffffffffffffffffffffffffffffffff191614915050611ab6565b600190505b949350505050565b606060405180602001604052806000815250905090565b6060611ae082610bf0565b6000611aea611abe565b90506000815111611b0a5760405180602001604052806000815250611b35565b80611b1484610d1a565b604051602001611b25929190612afb565b6040516020818303038152906040525b915050919050565b60007f01ffc9a7000000000000000000000000000000000000000000000000000000007bffffffffffffffffffffffffffffffffffffffffffffffffffffffff1916827bffffffffffffffffffffffffffffffffffffffffffffffffffffffff1916149050919050565b600073ffffffffffffffffffffffffffffffffffffffff168273ffffffffffffffffffffffffffffffffffffffff161415611c17576040517f08c379a0000000000000000000000000000000000000000000000000000000008152600401611c0e90612d34565b60405180910390fd5b611c208161163c565b15611c60576040517f08c379a0000000000000000000000000000000000000000000000000000000008152600401611c5790612c74565b60405180910390fd5b611c6e60008383600161190f565b611c778161163c565b15611cb7576040517f08c379a0000000000000000000000000000000000000000000000000000000008152600401611cae90612c74565b60405180910390fd5b6001600360008473ffffffffffffffffffffffffffffffffffffffff1673ffffffffffffffffffffffffffffffffffffffff16815260200190815260200160002060008282540192505081905550816002600083815260200190815260200160002060006101000a81548173ffffffffffffffffffffffffffffffffffffffff021916908373ffffffffffffffffffffffffffffffffffffffff160217905550808273ffffffffffffffffffffffffffffffffffffffff16600073ffffffffffffffffffffffffffffffffffffffff167fddf252ad1be2c89b69c2b068fc378daa952ba7f163c4a11628f55a4df523b3ef60405160405180910390a4611dc1600083836001611921565b5050565b611dd184848484611f48565b6001811115611e15576040517f08c379a0000000000000000000000000000000000000000000000000000000008152600401611e0c90612dd4565b60405180910390fd5b6000829050600073ffffffffffffffffffffffffffffffffffffffff168573ffffffffffffffffffffffffffffffffffffffff161415611e5d57611e588161206e565b611e9c565b8373ffffffffffffffffffffffffffffffffffffffff168573ffffffffffffffffffffffffffffffffffffffff1614611e9b57611e9a85826120b7565b5b5b600073ffffffffffffffffffffffffffffffffffffffff168473ffffffffffffffffffffffffffffffffffffffff161415611edf57611eda81612224565b611f1e565b8473ffffffffffffffffffffffffffffffffffffffff168473ffffffffffffffffffffffffffffffffffffffff1614611f1d57611f1c8482612367565b5b5b5050505050565b6000808273ffffffffffffffffffffffffffffffffffffffff163b119050919050565b600181111561206857600073ffffffffffffffffffffffffffffffffffffffff168473ffffffffffffffffffffffffffffffffffffffff1614611fdc5780600360008673ffffffffffffffffffffffffffffffffffffffff1673ffffffffffffffffffffffffffffffffffffffff1681526020019081526020016000206000828254611fd49190612f13565b925050819055505b600073ffffffffffffffffffffffffffffffffffffffff168373ffffffffffffffffffffffffffffffffffffffff16146120675780600360008573ffffffffffffffffffffffffffffffffffffffff1673ffffffffffffffffffffffffffffffffffffffff168152602001908152602001600020600082825461205f9190612ebd565b925050819055505b5b50505050565b6008805490506009600083815260200190815260200160002081905550600881908060018154018082558091505060019003906000526020600020016000909190919091505550565b600060016120c484610902565b6120ce9190612f13565b90506000600760008481526020019081526020016000205490508181146121b3576000600660008673ffffffffffffffffffffffffffffffffffffffff1673ffffffffffffffffffffffffffffffffffffffff168152602001908152602001600020600084815260200190815260200160002054905080600660008773ffffffffffffffffffffffffffffffffffffffff1673ffffffffffffffffffffffffffffffffffffffff168152602001908152602001600020600084815260200190815260200160002081905550816007600083815260200190815260200160002081905550505b6007600084815260200190815260200160002060009055600660008573ffffffffffffffffffffffffffffffffffffffff1673ffffffffffffffffffffffffffffffffffffffff16815260200190815260200160002060008381526020019081526020016000206000905550505050565b600060016008805490506122389190612f13565b905060006009600084815260200190815260200160002054905060006008838154811061228e577f4e487b7100000000000000000000000000000000000000000000000000000000600052603260045260246000fd5b9060005260206000200154905080600883815481106122d6577f4e487b7100000000000000000000000000000000000000000000000000000000600052603260045260246000fd5b90600052602060002001819055508160096000838152602001908152602001600020819055506009600085815260200190815260200160002060009055600880548061234b577f4e487b7100000000000000000000000000000000000000000000000000000000600052603160045260246000fd5b6001900381819060005260206000200160009055905550505050565b600061237283610902565b905081600660008573ffffffffffffffffffffffffffffffffffffffff1673ffffffffffffffffffffffffffffffffffffffff168152602001908152602001600020600083815260200190815260200160002081905550806007600084815260200190815260200160002081905550505050565b8280546123f290612ffd565b90600052602060002090601f016020900481019282612414576000855561245b565b82601f1061242d57805160ff191683800117855561245b565b8280016001018555821561245b579182015b8281111561245a57825182559160200191906001019061243f565b5b509050612468919061246c565b5090565b5b8082111561248557600081600090555060010161246d565b5090565b600061249c61249784612e34565b612e0f565b9050828152602081018484840111156124b457600080fd5b6124bf848285612fbb565b509392505050565b6000813590506124d681613579565b92915050565b6000813590506124eb81613590565b92915050565b600081359050612500816135a7565b92915050565b600081519050612515816135a7565b92915050565b600082601f83011261252c57600080fd5b813561253c848260208601612489565b91505092915050565b600081359050612554816135be565b92915050565b60006020828403121561256c57600080fd5b600061257a848285016124c7565b91505092915050565b6000806040838503121561259657600080fd5b60006125a4858286016124c7565b92505060206125b5858286016124c7565b9150509250929050565b6000806000606084860312156125d457600080fd5b60006125e2868287016124c7565b93505060206125f3868287016124c7565b925050604061260486828701612545565b9150509250925092565b6000806000806080858703121561262457600080fd5b6000612632878288016124c7565b9450506020612643878288016124c7565b935050604061265487828801612545565b925050606085013567ffffffffffffffff81111561267157600080fd5b61267d8782880161251b565b91505092959194509250565b6000806040838503121561269c57600080fd5b60006126aa858286016124c7565b92505060206126bb858286016124dc565b9150509250929050565b600080604083850312156126d857600080fd5b60006126e6858286016124c7565b92505060206126f785828601612545565b9150509250929050565b60006020828403121561271357600080fd5b6000612721848285016124f1565b91505092915050565b60006020828403121561273c57600080fd5b600061274a84828501612506565b91505092915050565b60006020828403121561276557600080fd5b600061277384828501612545565b91505092915050565b61278581612f47565b82525050565b61279481612f59565b82525050565b60006127a582612e7a565b6127af8185612e90565b93506127bf818560208601612fca565b6127c881613136565b840191505092915050565b60006127de82612e85565b6127e88185612ea1565b93506127f8818560208601612fca565b61280181613136565b840191505092915050565b600061281782612e85565b6128218185612eb2565b9350612831818560208601612fca565b80840191505092915050565b6000815461284a81612ffd565b6128548186612eb2565b9450600182166000811461286f5760018114612880576128b3565b60ff198316865281860193506128b3565b61288985612e65565b60005b838110156128ab5781548189015260018201915060208101905061288c565b838801955050505b50505092915050565b60006128c9602d83612ea1565b91506128d482613147565b604082019050919050565b60006128ec602b83612ea1565b91506128f782613196565b604082019050919050565b600061290f603283612ea1565b915061291a826131e5565b604082019050919050565b6000612932602583612ea1565b915061293d82613234565b604082019050919050565b6000612955601c83612ea1565b915061296082613283565b602082019050919050565b6000612978602483612ea1565b9150612983826132ac565b604082019050919050565b600061299b601983612ea1565b91506129a6826132fb565b602082019050919050565b60006129be602983612ea1565b91506129c982613324565b604082019050919050565b60006129e1601283612ea1565b91506129ec82613373565b602082019050919050565b6000612a04602e83612ea1565b9150612a0f8261339c565b604082019050919050565b6000612a27602083612ea1565b9150612a32826133eb565b602082019050919050565b6000612a4a601883612ea1565b9150612a5582613414565b602082019050919050565b6000612a6d602183612ea1565b9150612a788261343d565b604082019050919050565b6000612a90603d83612ea1565b9150612a9b8261348c565b604082019050919050565b6000612ab3602c83612ea1565b9150612abe826134db565b604082019050919050565b6000612ad6603583612ea1565b9150612ae18261352a565b604082019050919050565b612af581612fb1565b82525050565b6000612b07828561280c565b9150612b13828461280c565b91508190509392505050565b6000612b2b828661283d565b9150612b37828561280c565b9150612b43828461283d565b9150819050949350505050565b6000602082019050612b65600083018461277c565b92915050565b6000608082019050612b80600083018761277c565b612b8d602083018661277c565b612b9a6040830185612aec565b8181036060830152612bac818461279a565b905095945050505050565b6000602082019050612bcc600083018461278b565b92915050565b60006020820190508181036000830152612bec81846127d3565b905092915050565b60006020820190508181036000830152612c0d816128bc565b9050919050565b60006020820190508181036000830152612c2d816128df565b9050919050565b60006020820190508181036000830152612c4d81612902565b9050919050565b60006020820190508181036000830152612c6d81612925565b9050919050565b60006020820190508181036000830152612c8d81612948565b9050919050565b60006020820190508181036000830152612cad8161296b565b9050919050565b60006020820190508181036000830152612ccd8161298e565b9050919050565b60006020820190508181036000830152612ced816129b1565b9050919050565b60006020820190508181036000830152612d0d816129d4565b9050919050565b60006020820190508181036000830152612d2d816129f7565b9050919050565b60006020820190508181036000830152612d4d81612a1a565b9050919050565b60006020820190508181036000830152612d6d81612a3d565b9050919050565b60006020820190508181036000830152612d8d81612a60565b9050919050565b60006020820190508181036000830152612dad81612a83565b9050919050565b60006020820190508181036000830152612dcd81612aa6565b9050919050565b60006020820190508181036000830152612ded81612ac9565b9050919050565b6000602082019050612e096000830184612aec565b92915050565b6000612e19612e2a565b9050612e25828261302f565b919050565b6000604051905090565b600067ffffffffffffffff821115612e4f57612e4e613107565b5b612e5882613136565b9050602081019050919050565b60008190508160005260206000209050919050565b600081519050919050565b600081519050919050565b600082825260208201905092915050565b600082825260208201905092915050565b600081905092915050565b6000612ec882612fb1565b9150612ed383612fb1565b9250827fffffffffffffffffffffffffffffffffffffffffffffffffffffffffffffffff03821115612f0857612f076130a9565b5b828201905092915050565b6000612f1e82612fb1565b9150612f2983612fb1565b925082821015612f3c57612f3b6130a9565b5b828203905092915050565b6000612f5282612f91565b9050919050565b60008115159050919050565b60007fffffffff0000000000000000000000000000000000000000000000000000000082169050919050565b600073ffffffffffffffffffffffffffffffffffffffff82169050919050565b6000819050919050565b82818337600083830152505050565b60005b83811015612fe8578082015181840152602081019050612fcd565b83811115612ff7576000848401525b50505050565b6000600282049050600182168061301557607f821691505b60208210811415613029576130286130d8565b5b50919050565b61303882613136565b810181811067ffffffffffffffff8211171561305757613056613107565b5b80604052505050565b600061306b82612fb1565b91507fffffffffffffffffffffffffffffffffffffffffffffffffffffffffffffffff82141561309e5761309d6130a9565b5b600182019050919050565b7f4e487b7100000000000000000000000000000000000000000000000000000000600052601160045260246000fd5b7f4e487b7100000000000000000000000000000000000000000000000000000000600052602260045260246000fd5b7f4e487b7100000000000000000000000000000000000000000000000000000000600052604160045260246000fd5b6000601f19601f8301169050919050565b7f4552433732313a2063616c6c6572206973206e6f7420746f6b656e206f776e6560008201527f72206f7220617070726f76656400000000000000000000000000000000000000602082015250565b7f455243373231456e756d657261626c653a206f776e657220696e646578206f7560008201527f74206f6620626f756e6473000000000000000000000000000000000000000000602082015250565b7f4552433732313a207472616e7366657220746f206e6f6e20455243373231526560008201527f63656976657220696d706c656d656e7465720000000000000000000000000000602082015250565b7f4552433732313a207472616e736665722066726f6d20696e636f72726563742060008201527f6f776e6572000000000000000000000000000000000000000000000000000000602082015250565b7f4552433732313a20746f6b656e20616c7265616479206d696e74656400000000600082015250565b7f4552433732313a207472616e7366657220746f20746865207a65726f2061646460008201527f7265737300000000000000000000000000000000000000000000000000000000602082015250565b7f4552433732313a20617070726f766520746f2063616c6c657200000000000000600082015250565b7f4552433732313a2061646472657373207a65726f206973206e6f74206120766160008201527f6c6964206f776e65720000000000000000000000000000000000000000000000602082015250565b7f737570706c79206d696e746564206f7574210000000000000000000000000000600082015250565b7f45524337323155524953746f726167653a2055524920736574206f66206e6f6e60008201527f6578697374656e7420746f6b656e000000000000000000000000000000000000602082015250565b7f4552433732313a206d696e7420746f20746865207a65726f2061646472657373600082015250565b7f4552433732313a20696e76616c696420746f6b656e2049440000000000000000600082015250565b7f4552433732313a20617070726f76616c20746f2063757272656e74206f776e6560008201527f7200000000000000000000000000000000000000000000000000000000000000602082015250565b7f4552433732313a20617070726f76652063616c6c6572206973206e6f7420746f60008201527f6b656e206f776e6572206f7220617070726f76656420666f7220616c6c000000602082015250565b7f455243373231456e756d657261626c653a20676c6f62616c20696e646578206f60008201527f7574206f6620626f756e64730000000000000000000000000000000000000000602082015250565b7f455243373231456e756d657261626c653a20636f6e736563757469766520747260008201527f616e7366657273206e6f7420737570706f727465640000000000000000000000602082015250565b61358281612f47565b811461358d57600080fd5b50565b61359981612f59565b81146135a457600080fd5b50565b6135b081612f65565b81146135bb57600080fd5b50565b6135c781612fb1565b81146135d257600080fd5b5056fea26469706673582212206c2bb86ad0d5c80f3c381b5c8caa897e04505ee232c23a7129dcd0084621763664736f6c6343000804003368747470733a2f2f676174657761792e70696e6174612e636c6f75642f697066732f516d63463670687636377076474b78634e4b687a62526533447a473244646666337146766d48735555547a7868752f",
  "linkReferences": {},
  "deployedLinkReferences": {}
}