{
  "_format": "hh-sol-artifact-1",
  "contractName": "LIMEMarketplace",
  "sourceName": "src/backend/contracts/LIMEMarketplace.sol",
  "abi": [
    {
      "inputs": [
        {
          "internalType": "uint256",
          "name": "_feePercent",
          "type": "uint256"
        },
        {
          "internalType": "uint256",
          "name": "_royaltyPercent",
          "type": "uint256"
        },
        {
          "internalType": "address",
          "name": "_creator",
          "type": "address"
        },
        {
          "internalType": "contract LIMEnft",
          "name": "_nft",
          "type": "address"
        },
        {
          "internalType": "contract LIMEToken",
          "name": "_token",
          "type": "address"
        },
        {
          "internalType": "uint256",
          "name": "_priceToMint",
          "type": "uint256"
        }
      ],
      "stateMutability": "nonpayable",
      "type": "constructor"
    },
    {
      "anonymous": false,
      "inputs": [
        {
          "indexed": true,
          "internalType": "address",
          "name": "owner",
          "type": "address"
        },
        {
          "indexed": true,
          "internalType": "address",
          "name": "approved",
          "type": "address"
        },
        {
          "indexed": true,
          "internalType": "uint256",
          "name": "tokenId",
          "type": "uint256"
        }
      ],
      "name": "Approval",
      "type": "event"
    },
    {
      "anonymous": false,
      "inputs": [
        {
          "indexed": true,
          "internalType": "address",
          "name": "owner",
          "type": "address"
        },
        {
          "indexed": true,
          "internalType": "address",
          "name": "operator",
          "type": "address"
        },
        {
          "indexed": false,
          "internalType": "bool",
          "name": "approved",
          "type": "bool"
        }
      ],
      "name": "ApprovalForAll",
      "type": "event"
    },
    {
      "anonymous": false,
      "inputs": [
        {
          "indexed": false,
          "internalType": "uint256",
          "name": "itemId",
          "type": "uint256"
        },
        {
          "indexed": false,
          "internalType": "uint256",
          "name": "tokenId",
          "type": "uint256"
        },
        {
          "indexed": false,
          "internalType": "uint256",
          "name": "price",
          "type": "uint256"
        },
        {
          "indexed": true,
          "internalType": "address",
          "name": "seller",
          "type": "address"
        },
        {
          "indexed": true,
          "internalType": "address",
          "name": "buyer",
          "type": "address"
        },
        {
          "indexed": true,
          "internalType": "address",
          "name": "nft",
          "type": "address"
        },
        {
          "indexed": false,
          "internalType": "bool",
          "name": "forSale",
          "type": "bool"
        }
      ],
      "name": "ItemBought",
      "type": "event"
    },
    {
      "anonymous": false,
      "inputs": [
        {
          "indexed": false,
          "internalType": "uint256",
          "name": "itemId",
          "type": "uint256"
        },
        {
          "indexed": false,
          "internalType": "uint256",
          "name": "tokenId",
          "type": "uint256"
        },
        {
          "indexed": false,
          "internalType": "uint256",
          "name": "price",
          "type": "uint256"
        },
        {
          "indexed": true,
          "internalType": "address",
          "name": "owner",
          "type": "address"
        },
        {
          "indexed": true,
          "internalType": "address",
          "name": "nft",
          "type": "address"
        },
        {
          "indexed": false,
          "internalType": "bool",
          "name": "forSale",
          "type": "bool"
        }
      ],
      "name": "ItemListed",
      "type": "event"
    },
    {
      "anonymous": false,
      "inputs": [
        {
          "indexed": false,
          "internalType": "uint256",
          "name": "itemId",
          "type": "uint256"
        },
        {
          "indexed": false,
          "internalType": "uint256",
          "name": "tokenId",
          "type": "uint256"
        },
        {
          "indexed": false,
          "internalType": "uint256",
          "name": "price",
          "type": "uint256"
        },
        {
          "indexed": true,
          "internalType": "address",
          "name": "owner",
          "type": "address"
        },
        {
          "indexed": true,
          "internalType": "address",
          "name": "nft",
          "type": "address"
        },
        {
          "indexed": false,
          "internalType": "bool",
          "name": "forSale",
          "type": "bool"
        }
      ],
      "name": "ItemMade",
      "type": "event"
    },
    {
      "anonymous": false,
      "inputs": [
        {
          "indexed": true,
          "internalType": "address",
          "name": "previousOwner",
          "type": "address"
        },
        {
          "indexed": true,
          "internalType": "address",
          "name": "newOwner",
          "type": "address"
        }
      ],
      "name": "OwnershipTransferred",
      "type": "event"
    },
    {
      "anonymous": false,
      "inputs": [
        {
          "indexed": true,
          "internalType": "address",
          "name": "from",
          "type": "address"
        },
        {
          "indexed": true,
          "internalType": "address",
          "name": "to",
          "type": "address"
        },
        {
          "indexed": true,
          "internalType": "uint256",
          "name": "tokenId",
          "type": "uint256"
        }
      ],
      "name": "Transfer",
      "type": "event"
    },
    {
      "inputs": [
        {
          "internalType": "address",
          "name": "_minter",
          "type": "address"
        }
      ],
      "name": "_mint",
      "outputs": [
        {
          "internalType": "uint256",
          "name": "",
          "type": "uint256"
        }
      ],
      "stateMutability": "nonpayable",
      "type": "function"
    },
    {
      "inputs": [
        {
          "internalType": "address",
          "name": "to",
          "type": "address"
        },
        {
          "internalType": "uint256",
          "name": "tokenId",
          "type": "uint256"
        }
      ],
      "name": "approve",
      "outputs": [],
      "stateMutability": "nonpayable",
      "type": "function"
    },
    {
      "inputs": [
        {
          "internalType": "address",
          "name": "owner",
          "type": "address"
        }
      ],
      "name": "balanceOf",
      "outputs": [
        {
          "internalType": "uint256",
          "name": "",
          "type": "uint256"
        }
      ],
      "stateMutability": "view",
      "type": "function"
    },
    {
      "inputs": [],
      "name": "feeAccount",
      "outputs": [
        {
          "internalType": "address payable",
          "name": "",
          "type": "address"
        }
      ],
      "stateMutability": "view",
      "type": "function"
    },
    {
      "inputs": [],
      "name": "feePercent",
      "outputs": [
        {
          "internalType": "uint256",
          "name": "",
          "type": "uint256"
        }
      ],
      "stateMutability": "view",
      "type": "function"
    },
    {
      "inputs": [
        {
          "internalType": "uint256",
          "name": "tokenId",
          "type": "uint256"
        }
      ],
      "name": "getApproved",
      "outputs": [
        {
          "internalType": "address",
          "name": "",
          "type": "address"
        }
      ],
      "stateMutability": "view",
      "type": "function"
    },
    {
      "inputs": [
        {
          "internalType": "address",
          "name": "owner",
          "type": "address"
        },
        {
          "internalType": "address",
          "name": "operator",
          "type": "address"
        }
      ],
      "name": "isApprovedForAll",
      "outputs": [
        {
          "internalType": "bool",
          "name": "",
          "type": "bool"
        }
      ],
      "stateMutability": "view",
      "type": "function"
    },
    {
      "inputs": [],
      "name": "itemCount",
      "outputs": [
        {
          "internalType": "uint256",
          "name": "",
          "type": "uint256"
        }
      ],
      "stateMutability": "view",
      "type": "function"
    },
    {
      "inputs": [
        {
          "internalType": "uint256",
          "name": "",
          "type": "uint256"
        }
      ],
      "name": "items",
      "outputs": [
        {
          "internalType": "uint256",
          "name": "id",
          "type": "uint256"
        },
        {
          "internalType": "uint256",
          "name": "tokenId",
          "type": "uint256"
        },
        {
          "internalType": "uint256",
          "name": "price",
          "type": "uint256"
        },
        {
          "internalType": "address payable",
          "name": "owner",
          "type": "address"
        },
        {
          "internalType": "contract IERC721",
          "name": "nft",
          "type": "address"
        },
        {
          "internalType": "bool",
          "name": "forSale",
          "type": "bool"
        }
      ],
      "stateMutability": "view",
      "type": "function"
    },
    {
      "inputs": [
        {
          "internalType": "uint256",
          "name": "_itemId",
          "type": "uint256"
        },
        {
          "internalType": "uint256",
          "name": "_price",
          "type": "uint256"
        }
      ],
      "name": "listItem",
      "outputs": [],
      "stateMutability": "nonpayable",
      "type": "function"
    },
    {
      "inputs": [],
      "name": "marketplaceMint",
      "outputs": [],
      "stateMutability": "payable",
      "type": "function"
    },
    {
      "inputs": [],
      "name": "name",
      "outputs": [
        {
          "internalType": "string",
          "name": "",
          "type": "string"
        }
      ],
      "stateMutability": "view",
      "type": "function"
    },
    {
      "inputs": [],
      "name": "nft",
      "outputs": [
        {
          "internalType": "contract LIMEnft",
          "name": "",
          "type": "address"
        }
      ],
      "stateMutability": "view",
      "type": "function"
    },
    {
      "inputs": [],
      "name": "owner",
      "outputs": [
        {
          "internalType": "address",
          "name": "",
          "type": "address"
        }
      ],
      "stateMutability": "view",
      "type": "function"
    },
    {
      "inputs": [
        {
          "internalType": "uint256",
          "name": "tokenId",
          "type": "uint256"
        }
      ],
      "name": "ownerOf",
      "outputs": [
        {
          "internalType": "address",
          "name": "",
          "type": "address"
        }
      ],
      "stateMutability": "view",
      "type": "function"
    },
    {
      "inputs": [],
      "name": "priceToMint",
      "outputs": [
        {
          "internalType": "uint256",
          "name": "",
          "type": "uint256"
        }
      ],
      "stateMutability": "view",
      "type": "function"
    },
    {
      "inputs": [
        {
          "internalType": "uint256",
          "name": "_itemId",
          "type": "uint256"
        }
      ],
      "name": "purchaseItem",
      "outputs": [],
      "stateMutability": "payable",
      "type": "function"
    },
    {
      "inputs": [],
      "name": "renounceOwnership",
      "outputs": [],
      "stateMutability": "nonpayable",
      "type": "function"
    },
    {
      "inputs": [],
      "name": "royaltyAccount",
      "outputs": [
        {
          "internalType": "address payable",
          "name": "",
          "type": "address"
        }
      ],
      "stateMutability": "view",
      "type": "function"
    },
    {
      "inputs": [],
      "name": "royaltyPercent",
      "outputs": [
        {
          "internalType": "uint256",
          "name": "",
          "type": "uint256"
        }
      ],
      "stateMutability": "view",
      "type": "function"
    },
    {
      "inputs": [
        {
          "internalType": "address",
          "name": "from",
          "type": "address"
        },
        {
          "internalType": "address",
          "name": "to",
          "type": "address"
        },
        {
          "internalType": "uint256",
          "name": "tokenId",
          "type": "uint256"
        }
      ],
      "name": "safeTransferFrom",
      "outputs": [],
      "stateMutability": "nonpayable",
      "type": "function"
    },
    {
      "inputs": [
        {
          "internalType": "address",
          "name": "from",
          "type": "address"
        },
        {
          "internalType": "address",
          "name": "to",
          "type": "address"
        },
        {
          "internalType": "uint256",
          "name": "tokenId",
          "type": "uint256"
        },
        {
          "internalType": "bytes",
          "name": "data",
          "type": "bytes"
        }
      ],
      "name": "safeTransferFrom",
      "outputs": [],
      "stateMutability": "nonpayable",
      "type": "function"
    },
    {
      "inputs": [
        {
          "internalType": "address",
          "name": "operator",
          "type": "address"
        },
        {
          "internalType": "bool",
          "name": "approved",
          "type": "bool"
        }
      ],
      "name": "setApprovalForAll",
      "outputs": [],
      "stateMutability": "nonpayable",
      "type": "function"
    },
    {
      "inputs": [
        {
          "internalType": "bytes4",
          "name": "interfaceId",
          "type": "bytes4"
        }
      ],
      "name": "supportsInterface",
      "outputs": [
        {
          "internalType": "bool",
          "name": "",
          "type": "bool"
        }
      ],
      "stateMutability": "view",
      "type": "function"
    },
    {
      "inputs": [],
      "name": "symbol",
      "outputs": [
        {
          "internalType": "string",
          "name": "",
          "type": "string"
        }
      ],
      "stateMutability": "view",
      "type": "function"
    },
    {
      "inputs": [],
      "name": "token",
      "outputs": [
        {
          "internalType": "contract LIMEToken",
          "name": "",
          "type": "address"
        }
      ],
      "stateMutability": "view",
      "type": "function"
    },
    {
      "inputs": [
        {
          "internalType": "uint256",
          "name": "index",
          "type": "uint256"
        }
      ],
      "name": "tokenByIndex",
      "outputs": [
        {
          "internalType": "uint256",
          "name": "",
          "type": "uint256"
        }
      ],
      "stateMutability": "view",
      "type": "function"
    },
    {
      "inputs": [],
      "name": "tokenCount",
      "outputs": [
        {
          "internalType": "uint256",
          "name": "",
          "type": "uint256"
        }
      ],
      "stateMutability": "view",
      "type": "function"
    },
    {
      "inputs": [
        {
          "internalType": "address",
          "name": "owner",
          "type": "address"
        },
        {
          "internalType": "uint256",
          "name": "index",
          "type": "uint256"
        }
      ],
      "name": "tokenOfOwnerByIndex",
      "outputs": [
        {
          "internalType": "uint256",
          "name": "",
          "type": "uint256"
        }
      ],
      "stateMutability": "view",
      "type": "function"
    },
    {
      "inputs": [],
      "name": "tokenSupply",
      "outputs": [
        {
          "internalType": "uint256",
          "name": "",
          "type": "uint256"
        }
      ],
      "stateMutability": "view",
      "type": "function"
    },
    {
      "inputs": [
        {
          "internalType": "uint256",
          "name": "tokenId",
          "type": "uint256"
        }
      ],
      "name": "tokenURI",
      "outputs": [
        {
          "internalType": "string",
          "name": "",
          "type": "string"
        }
      ],
      "stateMutability": "view",
      "type": "function"
    },
    {
      "inputs": [],
      "name": "totalSupply",
      "outputs": [
        {
          "internalType": "uint256",
          "name": "",
          "type": "uint256"
        }
      ],
      "stateMutability": "view",
      "type": "function"
    },
    {
      "inputs": [
        {
          "internalType": "address",
          "name": "from",
          "type": "address"
        },
        {
          "internalType": "address",
          "name": "to",
          "type": "address"
        },
        {
          "internalType": "uint256",
          "name": "tokenId",
          "type": "uint256"
        }
      ],
      "name": "transferFrom",
      "outputs": [],
      "stateMutability": "nonpayable",
      "type": "function"
    },
    {
      "inputs": [
        {
          "internalType": "address",
          "name": "newOwner",
          "type": "address"
        }
      ],
      "name": "transferOwnership",
      "outputs": [],
      "stateMutability": "nonpayable",
      "type": "function"
    },
    {
      "inputs": [],
      "name": "withdraw",
      "outputs": [],
      "stateMutability": "payable",
      "type": "function"
    }
  ],
  "bytecode": "0x60a06040526064600e556040518060800160405280605181526020016200618360519139600f90805190602001906200003a92919062000388565b506040518060400160405280600581526020017f2e6a736f6e000000000000000000000000000000000000000000000000000000815250601090805190602001906200008892919062000388565b503480156200009657600080fd5b50604051620061d4380380620061d48339818101604052810190620000bc919062000494565b6040518060400160405280600781526020017f4c494d456e6674000000000000000000000000000000000000000000000000008152506040518060400160405280600481526020017f4c494d450000000000000000000000000000000000000000000000000000000081525060016000819055506200015062000144620002ba60201b60201c565b620002c260201b60201c565b81600290805190602001906200016892919062000388565b5080600390805190602001906200018192919062000388565b5050506000600d8190555030601160006101000a81548173ffffffffffffffffffffffffffffffffffffffff021916908373ffffffffffffffffffffffffffffffffffffffff16021790555083601260006101000a81548173ffffffffffffffffffffffffffffffffffffffff021916908373ffffffffffffffffffffffffffffffffffffffff16021790555085608081815250508460138190555082601660006101000a81548173ffffffffffffffffffffffffffffffffffffffff021916908373ffffffffffffffffffffffffffffffffffffffff16021790555081601760006101000a81548173ffffffffffffffffffffffffffffffffffffffff021916908373ffffffffffffffffffffffffffffffffffffffff1602179055508060158190555060006014819055505050505050506200065d565b600033905090565b6000600160009054906101000a900473ffffffffffffffffffffffffffffffffffffffff16905081600160006101000a81548173ffffffffffffffffffffffffffffffffffffffff021916908373ffffffffffffffffffffffffffffffffffffffff1602179055508173ffffffffffffffffffffffffffffffffffffffff168173ffffffffffffffffffffffffffffffffffffffff167f8be0079c531659141344cd1fd0a4f28419497f9722a3daafe3b4186f6b6457e060405160405180910390a35050565b828054620003969062000590565b90600052602060002090601f016020900481019282620003ba576000855562000406565b82601f10620003d557805160ff191683800117855562000406565b8280016001018555821562000406579182015b8281111562000405578251825591602001919060010190620003e8565b5b50905062000415919062000419565b5090565b5b80821115620004345760008160009055506001016200041a565b5090565b6000815190506200044981620005f5565b92915050565b60008151905062000460816200060f565b92915050565b600081519050620004778162000629565b92915050565b6000815190506200048e8162000643565b92915050565b60008060008060008060c08789031215620004ae57600080fd5b6000620004be89828a016200047d565b9650506020620004d189828a016200047d565b9550506040620004e489828a0162000438565b9450506060620004f789828a0162000466565b93505060806200050a89828a016200044f565b92505060a06200051d89828a016200047d565b9150509295509295509295565b6000620005378262000566565b9050919050565b60006200054b826200052a565b9050919050565b60006200055f826200052a565b9050919050565b600073ffffffffffffffffffffffffffffffffffffffff82169050919050565b6000819050919050565b60006002820490506001821680620005a957607f821691505b60208210811415620005c057620005bf620005c6565b5b50919050565b7f4e487b7100000000000000000000000000000000000000000000000000000000600052602260045260246000fd5b62000600816200052a565b81146200060c57600080fd5b50565b6200061a816200053e565b81146200062657600080fd5b50565b620006348162000552565b81146200064057600080fd5b50565b6200064e8162000586565b81146200065a57600080fd5b50565b608051615b036200068060003960008181610fca01526118600152615b036000f3fe6080604052600436106102045760003560e01c8063715018a611610118578063a22cb465116100a0578063d38ea5bf1161006f578063d38ea5bf14610779578063dc67a8ed14610795578063e985e9c51461079f578063f2fde38b146107dc578063fc0c546a1461080557610204565b8063a22cb465146106a8578063b88d4fde146106d1578063bfb231d2146106fa578063c87b56dd1461073c57610204565b80638da5cb5b116100e75780638da5cb5b146105d157806395d89b41146105fc5780639f181b5e146106275780639f67756d14610652578063a12c97271461067d57610204565b8063715018a61461053b5780637824407f146105525780637fd6f15c1461057d578063883efa67146105a857610204565b80633ccfd60b1161019b5780634f6ccce71161016a5780634f6ccce71461042e5780636352211e1461046b57806365e17c9d146104a85780636bfb0d01146104d357806370a08231146104fe57610204565b80633ccfd60b146103a557806342842e0e146103af57806347ccca02146103d85780634dc1dbec1461040357610204565b806309aa7b67116101d757806309aa7b67146102d757806318160ddd1461031457806323b872dd1461033f5780632f745c591461036857610204565b806301ffc9a71461020957806306fdde0314610246578063081812fc14610271578063095ea7b3146102ae575b600080fd5b34801561021557600080fd5b50610230600480360381019061022b9190614282565b610830565b60405161023d9190614a53565b60405180910390f35b34801561025257600080fd5b5061025b610842565b6040516102689190614aa4565b60405180910390f35b34801561027d57600080fd5b50610298600480360381019061029391906142d4565b6108d4565b6040516102a59190614911565b60405180910390f35b3480156102ba57600080fd5b506102d560048036038101906102d0919061421d565b61091a565b005b3480156102e357600080fd5b506102fe60048036038101906102f99190614089565b610a32565b60405161030b9190614e26565b60405180910390f35b34801561032057600080fd5b50610329610aea565b6040516103369190614e26565b60405180910390f35b34801561034b57600080fd5b5061036660048036038101906103619190614117565b610af7565b005b34801561037457600080fd5b5061038f600480360381019061038a919061421d565b610b57565b60405161039c9190614e26565b60405180910390f35b6103ad610bfc565b005b3480156103bb57600080fd5b506103d660048036038101906103d19190614117565b610d60565b005b3480156103e457600080fd5b506103ed610d80565b6040516103fa9190614a89565b60405180910390f35b34801561040f57600080fd5b50610418610da6565b6040516104259190614e26565b60405180910390f35b34801561043a57600080fd5b50610455600480360381019061045091906142d4565b610dac565b6040516104629190614e26565b60405180910390f35b34801561047757600080fd5b50610492600480360381019061048d91906142d4565b610e43565b60405161049f9190614911565b60405180910390f35b3480156104b457600080fd5b506104bd610eca565b6040516104ca919061492c565b60405180910390f35b3480156104df57600080fd5b506104e8610ef0565b6040516104f59190614e26565b60405180910390f35b34801561050a57600080fd5b5061052560048036038101906105209190614089565b610ef6565b6040516105329190614e26565b60405180910390f35b34801561054757600080fd5b50610550610fae565b005b34801561055e57600080fd5b50610567610fc2565b6040516105749190614e26565b60405180910390f35b34801561058957600080fd5b50610592610fc8565b60405161059f9190614e26565b60405180910390f35b3480156105b457600080fd5b506105cf60048036038101906105ca9190614326565b610fec565b005b3480156105dd57600080fd5b506105e6611472565b6040516105f39190614911565b60405180910390f35b34801561060857600080fd5b5061061161149c565b60405161061e9190614aa4565b60405180910390f35b34801561063357600080fd5b5061063c61152e565b6040516106499190614e26565b60405180910390f35b34801561065e57600080fd5b50610667611534565b6040516106749190614e26565b60405180910390f35b34801561068957600080fd5b5061069261153a565b60405161069f919061492c565b60405180910390f35b3480156106b457600080fd5b506106cf60048036038101906106ca91906141e1565b611560565b005b3480156106dd57600080fd5b506106f860048036038101906106f39190614166565b611576565b005b34801561070657600080fd5b50610721600480360381019061071c91906142d4565b6115d8565b60405161073396959493929190614e86565b60405180910390f35b34801561074857600080fd5b50610763600480360381019061075e91906142d4565b611661565b6040516107709190614aa4565b60405180910390f35b610793600480360381019061078e91906142d4565b611673565b005b61079d611e81565b005b3480156107ab57600080fd5b506107c660048036038101906107c191906140db565b6121bc565b6040516107d39190614a53565b60405180910390f35b3480156107e857600080fd5b5061080360048036038101906107fe9190614089565b612250565b005b34801561081157600080fd5b5061081a6122d4565b6040516108279190614a6e565b60405180910390f35b600061083b826122fa565b9050919050565b6060600280546108519061526b565b80601f016020809104026020016040519081016040528092919081815260200182805461087d9061526b565b80156108ca5780601f1061089f576101008083540402835291602001916108ca565b820191906000526020600020905b8154815290600101906020018083116108ad57829003601f168201915b5050505050905090565b60006108df82612374565b6006600083815260200190815260200160002060009054906101000a900473ffffffffffffffffffffffffffffffffffffffff169050919050565b600061092582610e43565b90508073ffffffffffffffffffffffffffffffffffffffff168373ffffffffffffffffffffffffffffffffffffffff161415610996576040517f08c379a000000000000000000000000000000000000000000000000000000000815260040161098d90614d66565b60405180910390fd5b8073ffffffffffffffffffffffffffffffffffffffff166109b56123bf565b73ffffffffffffffffffffffffffffffffffffffff1614806109e457506109e3816109de6123bf565b6121bc565b5b610a23576040517f08c379a0000000000000000000000000000000000000000000000000000000008152600401610a1a90614d86565b60405180910390fd5b610a2d83836123c7565b505050565b6000600d6000815480929190610a47906152ce565b9190505550600e54600d541115610a93576040517f08c379a0000000000000000000000000000000000000000000000000000000008152600401610a8a90614cc6565b60405180910390fd5b610a9f82600d54612480565b6000600f610aae600d5461249e565b6010604051602001610ac2939291906148e0565b6040516020818303038152906040529050610adf600d54826125c2565b600d54915050919050565b6000600a80549050905090565b610b08610b026123bf565b82612636565b610b47576040517f08c379a0000000000000000000000000000000000000000000000000000000008152600401610b3e90614ae6565b60405180910390fd5b610b528383836126cb565b505050565b6000610b6283610ef6565b8210610ba3576040517f08c379a0000000000000000000000000000000000000000000000000000000008152600401610b9a90614b06565b60405180910390fd5b600860008473ffffffffffffffffffffffffffffffffffffffff1673ffffffffffffffffffffffffffffffffffffffff168152602001908152602001600020600083815260200190815260200160002054905092915050565b610c046129c5565b601760009054906101000a900473ffffffffffffffffffffffffffffffffffffffff1673ffffffffffffffffffffffffffffffffffffffff1663a9059cbb33601760009054906101000a900473ffffffffffffffffffffffffffffffffffffffff1673ffffffffffffffffffffffffffffffffffffffff166370a08231306040518263ffffffff1660e01b8152600401610c9e9190614911565b60206040518083038186803b158015610cb657600080fd5b505afa158015610cca573d6000803e3d6000fd5b505050506040513d601f19601f82011682018060405250810190610cee91906142fd565b6040518363ffffffff1660e01b8152600401610d0b929190614a2a565b602060405180830381600087803b158015610d2557600080fd5b505af1158015610d39573d6000803e3d6000fd5b505050506040513d601f19601f82011682018060405250810190610d5d9190614259565b50565b610d7b83838360405180602001604052806000815250611576565b505050565b601660009054906101000a900473ffffffffffffffffffffffffffffffffffffffff1681565b60155481565b6000610db6610aea565b8210610df7576040517f08c379a0000000000000000000000000000000000000000000000000000000008152600401610dee90614da6565b60405180910390fd5b600a8281548110610e31577f4e487b7100000000000000000000000000000000000000000000000000000000600052603260045260246000fd5b90600052602060002001549050919050565b600080610e4f83612a43565b9050600073ffffffffffffffffffffffffffffffffffffffff168173ffffffffffffffffffffffffffffffffffffffff161415610ec1576040517f08c379a0000000000000000000000000000000000000000000000000000000008152600401610eb890614d46565b60405180910390fd5b80915050919050565b601160009054906101000a900473ffffffffffffffffffffffffffffffffffffffff1681565b60145481565b60008073ffffffffffffffffffffffffffffffffffffffff168273ffffffffffffffffffffffffffffffffffffffff161415610f67576040517f08c379a0000000000000000000000000000000000000000000000000000000008152600401610f5e90614c86565b60405180910390fd5b600560008373ffffffffffffffffffffffffffffffffffffffff1673ffffffffffffffffffffffffffffffffffffffff168152602001908152602001600020549050919050565b610fb66129c5565b610fc06000612a80565b565b600e5481565b7f000000000000000000000000000000000000000000000000000000000000000081565b60006018600084815260200190815260200160002090503373ffffffffffffffffffffffffffffffffffffffff16601660009054906101000a900473ffffffffffffffffffffffffffffffffffffffff1673ffffffffffffffffffffffffffffffffffffffff16636352211e83600101546040518263ffffffff1660e01b81526004016110799190614e26565b60206040518083038186803b15801561109157600080fd5b505afa1580156110a5573d6000803e3d6000fd5b505050506040513d601f19601f820116820180604052508101906110c991906140b2565b73ffffffffffffffffffffffffffffffffffffffff161461111f576040517f08c379a000000000000000000000000000000000000000000000000000000000815260040161111690614ac6565b60405180910390fd5b8060040160149054906101000a900460ff1615611171576040517f08c379a000000000000000000000000000000000000000000000000000000000815260040161116890614ca6565b60405180910390fd5b601660009054906101000a900473ffffffffffffffffffffffffffffffffffffffff1673ffffffffffffffffffffffffffffffffffffffff1663e985e9c533306040518363ffffffff1660e01b81526004016111ce929190614947565b60206040518083038186803b1580156111e657600080fd5b505afa1580156111fa573d6000803e3d6000fd5b505050506040513d601f19601f8201168201806040525081019061121e9190614259565b61125d576040517f08c379a000000000000000000000000000000000000000000000000000000000815260040161125490614b26565b60405180910390fd5b81816002018190555060018160040160146101000a81548160ff02191690831515021790555080601860008581526020019081526020016000206000820154816000015560018201548160010155600282015481600201556003820160009054906101000a900473ffffffffffffffffffffffffffffffffffffffff168160030160006101000a81548173ffffffffffffffffffffffffffffffffffffffff021916908373ffffffffffffffffffffffffffffffffffffffff1602179055506004820160009054906101000a900473ffffffffffffffffffffffffffffffffffffffff168160040160006101000a81548173ffffffffffffffffffffffffffffffffffffffff021916908373ffffffffffffffffffffffffffffffffffffffff1602179055506004820160149054906101000a900460ff168160040160146101000a81548160ff0219169083151502179055509050508060040160009054906101000a900473ffffffffffffffffffffffffffffffffffffffff1673ffffffffffffffffffffffffffffffffffffffff168160030160009054906101000a900473ffffffffffffffffffffffffffffffffffffffff1673ffffffffffffffffffffffffffffffffffffffff167fe724321dfc2500a484a6bd822a9799289d4a04451b190d2833f2cdecf56bc47c60145484600101548660016040516114659493929190614ee7565b60405180910390a3505050565b6000600160009054906101000a900473ffffffffffffffffffffffffffffffffffffffff16905090565b6060600380546114ab9061526b565b80601f01602080910402602001604051908101604052809291908181526020018280546114d79061526b565b80156115245780601f106114f957610100808354040283529160200191611524565b820191906000526020600020905b81548152906001019060200180831161150757829003601f168201915b5050505050905090565b600d5481565b60135481565b601260009054906101000a900473ffffffffffffffffffffffffffffffffffffffff1681565b61157261156b6123bf565b8383612b46565b5050565b6115876115816123bf565b83612636565b6115c6576040517f08c379a00000000000000000000000000000000000000000000000000000000081526004016115bd90614ae6565b60405180910390fd5b6115d284848484612cb3565b50505050565b60186020528060005260406000206000915090508060000154908060010154908060020154908060030160009054906101000a900473ffffffffffffffffffffffffffffffffffffffff16908060040160009054906101000a900473ffffffffffffffffffffffffffffffffffffffff16908060040160149054906101000a900460ff16905086565b606061166c82612d0f565b9050919050565b61167b612e22565b60006018600083815260200190815260200160002090508060040160149054906101000a900460ff166116e3576040517f08c379a00000000000000000000000000000000000000000000000000000000081526004016116da90614c26565b60405180910390fd5b6000821180156116f557506014548211155b611734576040517f08c379a000000000000000000000000000000000000000000000000000000000815260040161172b90614c66565b60405180910390fd5b3373ffffffffffffffffffffffffffffffffffffffff16601660009054906101000a900473ffffffffffffffffffffffffffffffffffffffff1673ffffffffffffffffffffffffffffffffffffffff16636352211e83600101546040518263ffffffff1660e01b81526004016117aa9190614e26565b60206040518083038186803b1580156117c257600080fd5b505afa1580156117d6573d6000803e3d6000fd5b505050506040513d601f19601f820116820180604052508101906117fa91906140b2565b73ffffffffffffffffffffffffffffffffffffffff161415611851576040517f08c379a000000000000000000000000000000000000000000000000000000000815260040161184890614be6565b60405180910390fd5b600081600201549050600060647f0000000000000000000000000000000000000000000000000000000000000000846002015461188e9190615061565b6118989190615030565b90506000606460135485600201546118b09190615061565b6118ba9190615030565b905060008460030160009054906101000a900473ffffffffffffffffffffffffffffffffffffffff169050601760009054906101000a900473ffffffffffffffffffffffffffffffffffffffff1673ffffffffffffffffffffffffffffffffffffffff166323b872dd338385878a6002015461193691906150bb565b61194091906150bb565b6040518463ffffffff1660e01b815260040161195e939291906149a7565b602060405180830381600087803b15801561197857600080fd5b505af115801561198c573d6000803e3d6000fd5b505050506040513d601f19601f820116820180604052508101906119b09190614259565b6119ef576040517f08c379a00000000000000000000000000000000000000000000000000000000081526004016119e690614bc6565b60405180910390fd5b601760009054906101000a900473ffffffffffffffffffffffffffffffffffffffff1673ffffffffffffffffffffffffffffffffffffffff166323b872dd33601160009054906101000a900473ffffffffffffffffffffffffffffffffffffffff16866040518463ffffffff1660e01b8152600401611a7093929190614970565b602060405180830381600087803b158015611a8a57600080fd5b505af1158015611a9e573d6000803e3d6000fd5b505050506040513d601f19601f82011682018060405250810190611ac29190614259565b50601760009054906101000a900473ffffffffffffffffffffffffffffffffffffffff1673ffffffffffffffffffffffffffffffffffffffff166323b872dd33601260009054906101000a900473ffffffffffffffffffffffffffffffffffffffff16856040518463ffffffff1660e01b8152600401611b4493929190614970565b602060405180830381600087803b158015611b5e57600080fd5b505af1158015611b72573d6000803e3d6000fd5b505050506040513d601f19601f82011682018060405250810190611b969190614259565b50601660009054906101000a900473ffffffffffffffffffffffffffffffffffffffff1673ffffffffffffffffffffffffffffffffffffffff166342842e0e823388600101546040518463ffffffff1660e01b8152600401611bfa939291906149a7565b600060405180830381600087803b158015611c1457600080fd5b505af1158015611c28573d6000803e3d6000fd5b5050505060008560040160146101000a81548160ff02191690831515021790555060008560020181905550338560030160006101000a81548173ffffffffffffffffffffffffffffffffffffffff021916908373ffffffffffffffffffffffffffffffffffffffff16021790555084601860008881526020019081526020016000206000820154816000015560018201548160010155600282015481600201556003820160009054906101000a900473ffffffffffffffffffffffffffffffffffffffff168160030160006101000a81548173ffffffffffffffffffffffffffffffffffffffff021916908373ffffffffffffffffffffffffffffffffffffffff1602179055506004820160009054906101000a900473ffffffffffffffffffffffffffffffffffffffff168160040160006101000a81548173ffffffffffffffffffffffffffffffffffffffff021916908373ffffffffffffffffffffffffffffffffffffffff1602179055506004820160149054906101000a900460ff168160040160146101000a81548160ff0219169083151502179055509050508460040160009054906101000a900473ffffffffffffffffffffffffffffffffffffffff1673ffffffffffffffffffffffffffffffffffffffff163373ffffffffffffffffffffffffffffffffffffffff168273ffffffffffffffffffffffffffffffffffffffff167fed254314ec080fad4250c517a68d69e7c9e318ae7d31b4b953dae99d9fbb1c02898960010154896000604051611e699493929190614ee7565b60405180910390a45050505050611e7e612e72565b50565b611e89612e22565b601554601760009054906101000a900473ffffffffffffffffffffffffffffffffffffffff1673ffffffffffffffffffffffffffffffffffffffff166370a08231336040518263ffffffff1660e01b8152600401611ee79190614911565b60206040518083038186803b158015611eff57600080fd5b505afa158015611f13573d6000803e3d6000fd5b505050506040513d601f19601f82011682018060405250810190611f3791906142fd565b1015611f78576040517f08c379a0000000000000000000000000000000000000000000000000000000008152600401611f6f90614e06565b60405180910390fd5b6000339050601760009054906101000a900473ffffffffffffffffffffffffffffffffffffffff1673ffffffffffffffffffffffffffffffffffffffff166323b872dd33306015546040518463ffffffff1660e01b8152600401611fde939291906149a7565b602060405180830381600087803b158015611ff857600080fd5b505af115801561200c573d6000803e3d6000fd5b505050506040513d601f19601f820116820180604052508101906120309190614259565b50601660009054906101000a900473ffffffffffffffffffffffffffffffffffffffff1673ffffffffffffffffffffffffffffffffffffffff166309aa7b67826040518263ffffffff1660e01b815260040161208c9190614911565b602060405180830381600087803b1580156120a657600080fd5b505af11580156120ba573d6000803e3d6000fd5b505050506040513d601f19601f820116820180604052508101906120de91906142fd565b506000601660009054906101000a900473ffffffffffffffffffffffffffffffffffffffff1673ffffffffffffffffffffffffffffffffffffffff16639f181b5e6040518163ffffffff1660e01b815260040160206040518083038186803b15801561214957600080fd5b505afa15801561215d573d6000803e3d6000fd5b505050506040513d601f19601f8201168201806040525081019061218191906142fd565b90506121b0601660009054906101000a900473ffffffffffffffffffffffffffffffffffffffff168233612e7c565b50506121ba612e72565b565b6000600760008473ffffffffffffffffffffffffffffffffffffffff1673ffffffffffffffffffffffffffffffffffffffff16815260200190815260200160002060008373ffffffffffffffffffffffffffffffffffffffff1673ffffffffffffffffffffffffffffffffffffffff16815260200190815260200160002060009054906101000a900460ff16905092915050565b6122586129c5565b600073ffffffffffffffffffffffffffffffffffffffff168173ffffffffffffffffffffffffffffffffffffffff1614156122c8576040517f08c379a00000000000000000000000000000000000000000000000000000000081526004016122bf90614b66565b60405180910390fd5b6122d181612a80565b50565b601760009054906101000a900473ffffffffffffffffffffffffffffffffffffffff1681565b60007f780e9d63000000000000000000000000000000000000000000000000000000007bffffffffffffffffffffffffffffffffffffffffffffffffffffffff1916827bffffffffffffffffffffffffffffffffffffffffffffffffffffffff1916148061236d575061236c8261304a565b5b9050919050565b61237d8161312c565b6123bc576040517f08c379a00000000000000000000000000000000000000000000000000000000081526004016123b390614d46565b60405180910390fd5b50565b600033905090565b816006600083815260200190815260200160002060006101000a81548173ffffffffffffffffffffffffffffffffffffffff021916908373ffffffffffffffffffffffffffffffffffffffff160217905550808273ffffffffffffffffffffffffffffffffffffffff1661243a83610e43565b73ffffffffffffffffffffffffffffffffffffffff167f8c5be1e5ebec7d5bd14f71427d1e84f3dd0314c0f7b2291e5b200ac8c7c3b92560405160405180910390a45050565b61249a82826040518060200160405280600081525061316d565b5050565b6060600060016124ad846131c8565b01905060008167ffffffffffffffff8111156124f2577f4e487b7100000000000000000000000000000000000000000000000000000000600052604160045260246000fd5b6040519080825280601f01601f1916602001820160405280156125245781602001600182028036833780820191505090505b509050600082602001820190505b6001156125b7578080600190039150507f3031323334353637383961626364656600000000000000000000000000000000600a86061a8153600a85816125a1577f4e487b7100000000000000000000000000000000000000000000000000000000600052601260045260246000fd5b04945060008514156125b2576125b7565b612532565b819350505050919050565b6125cb8261312c565b61260a576040517f08c379a000000000000000000000000000000000000000000000000000000000815260040161260190614ce6565b60405180910390fd5b80600c60008481526020019081526020016000209080519060200190612631929190613ed6565b505050565b60008061264283610e43565b90508073ffffffffffffffffffffffffffffffffffffffff168473ffffffffffffffffffffffffffffffffffffffff161480612684575061268381856121bc565b5b806126c257508373ffffffffffffffffffffffffffffffffffffffff166126aa846108d4565b73ffffffffffffffffffffffffffffffffffffffff16145b91505092915050565b8273ffffffffffffffffffffffffffffffffffffffff166126eb82610e43565b73ffffffffffffffffffffffffffffffffffffffff1614612741576040517f08c379a000000000000000000000000000000000000000000000000000000000815260040161273890614b86565b60405180910390fd5b600073ffffffffffffffffffffffffffffffffffffffff168273ffffffffffffffffffffffffffffffffffffffff1614156127b1576040517f08c379a00000000000000000000000000000000000000000000000000000000081526004016127a890614c06565b60405180910390fd5b6127be83838360016133ff565b8273ffffffffffffffffffffffffffffffffffffffff166127de82610e43565b73ffffffffffffffffffffffffffffffffffffffff1614612834576040517f08c379a000000000000000000000000000000000000000000000000000000000815260040161282b90614b86565b60405180910390fd5b6006600082815260200190815260200160002060006101000a81549073ffffffffffffffffffffffffffffffffffffffff02191690556001600560008573ffffffffffffffffffffffffffffffffffffffff1673ffffffffffffffffffffffffffffffffffffffff168152602001908152602001600020600082825403925050819055506001600560008473ffffffffffffffffffffffffffffffffffffffff1673ffffffffffffffffffffffffffffffffffffffff16815260200190815260200160002060008282540192505081905550816004600083815260200190815260200160002060006101000a81548173ffffffffffffffffffffffffffffffffffffffff021916908373ffffffffffffffffffffffffffffffffffffffff160217905550808273ffffffffffffffffffffffffffffffffffffffff168473ffffffffffffffffffffffffffffffffffffffff167fddf252ad1be2c89b69c2b068fc378daa952ba7f163c4a11628f55a4df523b3ef60405160405180910390a46129c08383836001613411565b505050565b6129cd6123bf565b73ffffffffffffffffffffffffffffffffffffffff166129eb611472565b73ffffffffffffffffffffffffffffffffffffffff1614612a41576040517f08c379a0000000000000000000000000000000000000000000000000000000008152600401612a3890614d26565b60405180910390fd5b565b60006004600083815260200190815260200160002060009054906101000a900473ffffffffffffffffffffffffffffffffffffffff169050919050565b6000600160009054906101000a900473ffffffffffffffffffffffffffffffffffffffff16905081600160006101000a81548173ffffffffffffffffffffffffffffffffffffffff021916908373ffffffffffffffffffffffffffffffffffffffff1602179055508173ffffffffffffffffffffffffffffffffffffffff168173ffffffffffffffffffffffffffffffffffffffff167f8be0079c531659141344cd1fd0a4f28419497f9722a3daafe3b4186f6b6457e060405160405180910390a35050565b8173ffffffffffffffffffffffffffffffffffffffff168373ffffffffffffffffffffffffffffffffffffffff161415612bb5576040517f08c379a0000000000000000000000000000000000000000000000000000000008152600401612bac90614c46565b60405180910390fd5b80600760008573ffffffffffffffffffffffffffffffffffffffff1673ffffffffffffffffffffffffffffffffffffffff16815260200190815260200160002060008473ffffffffffffffffffffffffffffffffffffffff1673ffffffffffffffffffffffffffffffffffffffff16815260200190815260200160002060006101000a81548160ff0219169083151502179055508173ffffffffffffffffffffffffffffffffffffffff168373ffffffffffffffffffffffffffffffffffffffff167f17307eab39ab6107e8899845ad3d59bd9653f200f220920489ca2b5937696c3183604051612ca69190614a53565b60405180910390a3505050565b612cbe8484846126cb565b612cca84848484613417565b612d09576040517f08c379a0000000000000000000000000000000000000000000000000000000008152600401612d0090614b46565b60405180910390fd5b50505050565b6060612d1a82612374565b6000600c60008481526020019081526020016000208054612d3a9061526b565b80601f0160208091040260200160405190810160405280929190818152602001828054612d669061526b565b8015612db35780601f10612d8857610100808354040283529160200191612db3565b820191906000526020600020905b815481529060010190602001808311612d9657829003601f168201915b505050505090506000612dc46135ae565b9050600081511415612dda578192505050612e1d565b600082511115612e0f578082604051602001612df79291906148bc565b60405160208183030381529060405292505050612e1d565b612e18846135c5565b925050505b919050565b60026000541415612e68576040517f08c379a0000000000000000000000000000000000000000000000000000000008152600401612e5f90614de6565b60405180910390fd5b6002600081905550565b6001600081905550565b60146000815480929190612e8f906152ce565b91905055506040518060c001604052806014548152602001838152602001600081526020018273ffffffffffffffffffffffffffffffffffffffff1681526020018473ffffffffffffffffffffffffffffffffffffffff1681526020016000151581525060186000601454815260200190815260200160002060008201518160000155602082015181600101556040820151816002015560608201518160030160006101000a81548173ffffffffffffffffffffffffffffffffffffffff021916908373ffffffffffffffffffffffffffffffffffffffff16021790555060808201518160040160006101000a81548173ffffffffffffffffffffffffffffffffffffffff021916908373ffffffffffffffffffffffffffffffffffffffff16021790555060a08201518160040160146101000a81548160ff0219169083151502179055509050508273ffffffffffffffffffffffffffffffffffffffff163373ffffffffffffffffffffffffffffffffffffffff167f7fcabfe7d2906b29882b2d6fc2d86789108791c91c81d153d4bb7cb453daa6fe6014548560008060405161303d9493929190614e41565b60405180910390a3505050565b60007f80ac58cd000000000000000000000000000000000000000000000000000000007bffffffffffffffffffffffffffffffffffffffffffffffffffffffff1916827bffffffffffffffffffffffffffffffffffffffffffffffffffffffff1916148061311557507f5b5e139f000000000000000000000000000000000000000000000000000000007bffffffffffffffffffffffffffffffffffffffffffffffffffffffff1916827bffffffffffffffffffffffffffffffffffffffffffffffffffffffff1916145b8061312557506131248261362d565b5b9050919050565b60008073ffffffffffffffffffffffffffffffffffffffff1661314e83612a43565b73ffffffffffffffffffffffffffffffffffffffff1614159050919050565b6131778383613697565b6131846000848484613417565b6131c3576040517f08c379a00000000000000000000000000000000000000000000000000000000081526004016131ba90614b46565b60405180910390fd5b505050565b600080600090507a184f03e93ff9f4daa797ed6e38ed64bf6a1f010000000000000000831061324c577a184f03e93ff9f4daa797ed6e38ed64bf6a1f0100000000000000008381613242577f4e487b7100000000000000000000000000000000000000000000000000000000600052601260045260246000fd5b0492506040810190505b6d04ee2d6d415b85acef810000000083106132af576d04ee2d6d415b85acef810000000083816132a5577f4e487b7100000000000000000000000000000000000000000000000000000000600052601260045260246000fd5b0492506020810190505b662386f26fc10000831061330457662386f26fc1000083816132fa577f4e487b7100000000000000000000000000000000000000000000000000000000600052601260045260246000fd5b0492506010810190505b6305f5e1008310613353576305f5e1008381613349577f4e487b7100000000000000000000000000000000000000000000000000000000600052601260045260246000fd5b0492506008810190505b612710831061339e576127108381613394577f4e487b7100000000000000000000000000000000000000000000000000000000600052601260045260246000fd5b0492506004810190505b606483106133e757606483816133dd577f4e487b7100000000000000000000000000000000000000000000000000000000600052601260045260246000fd5b0492506002810190505b600a83106133f6576001810190505b80915050919050565b61340b848484846138b5565b50505050565b50505050565b60006134388473ffffffffffffffffffffffffffffffffffffffff16613a15565b156135a1578373ffffffffffffffffffffffffffffffffffffffff1663150b7a026134616123bf565b8786866040518563ffffffff1660e01b815260040161348394939291906149de565b602060405180830381600087803b15801561349d57600080fd5b505af19250505080156134ce57506040513d601f19601f820116820180604052508101906134cb91906142ab565b60015b613551573d80600081146134fe576040519150601f19603f3d011682016040523d82523d6000602084013e613503565b606091505b50600081511415613549576040517f08c379a000000000000000000000000000000000000000000000000000000000815260040161354090614b46565b60405180910390fd5b805181602001fd5b63150b7a0260e01b7bffffffffffffffffffffffffffffffffffffffffffffffffffffffff1916817bffffffffffffffffffffffffffffffffffffffffffffffffffffffff1916149150506135a6565b600190505b949350505050565b606060405180602001604052806000815250905090565b60606135d082612374565b60006135da6135ae565b905060008151116135fa5760405180602001604052806000815250613625565b806136048461249e565b6040516020016136159291906148bc565b6040516020818303038152906040525b915050919050565b60007f01ffc9a7000000000000000000000000000000000000000000000000000000007bffffffffffffffffffffffffffffffffffffffffffffffffffffffff1916827bffffffffffffffffffffffffffffffffffffffffffffffffffffffff1916149050919050565b600073ffffffffffffffffffffffffffffffffffffffff168273ffffffffffffffffffffffffffffffffffffffff161415613707576040517f08c379a00000000000000000000000000000000000000000000000000000000081526004016136fe90614d06565b60405180910390fd5b6137108161312c565b15613750576040517f08c379a000000000000000000000000000000000000000000000000000000000815260040161374790614ba6565b60405180910390fd5b61375e6000838360016133ff565b6137678161312c565b156137a7576040517f08c379a000000000000000000000000000000000000000000000000000000000815260040161379e90614ba6565b60405180910390fd5b6001600560008473ffffffffffffffffffffffffffffffffffffffff1673ffffffffffffffffffffffffffffffffffffffff16815260200190815260200160002060008282540192505081905550816004600083815260200190815260200160002060006101000a81548173ffffffffffffffffffffffffffffffffffffffff021916908373ffffffffffffffffffffffffffffffffffffffff160217905550808273ffffffffffffffffffffffffffffffffffffffff16600073ffffffffffffffffffffffffffffffffffffffff167fddf252ad1be2c89b69c2b068fc378daa952ba7f163c4a11628f55a4df523b3ef60405160405180910390a46138b1600083836001613411565b5050565b6138c184848484613a38565b6001811115613905576040517f08c379a00000000000000000000000000000000000000000000000000000000081526004016138fc90614dc6565b60405180910390fd5b6000829050600073ffffffffffffffffffffffffffffffffffffffff168573ffffffffffffffffffffffffffffffffffffffff16141561394d5761394881613b5e565b61398c565b8373ffffffffffffffffffffffffffffffffffffffff168573ffffffffffffffffffffffffffffffffffffffff161461398b5761398a8582613ba7565b5b5b600073ffffffffffffffffffffffffffffffffffffffff168473ffffffffffffffffffffffffffffffffffffffff1614156139cf576139ca81613d14565b613a0e565b8473ffffffffffffffffffffffffffffffffffffffff168473ffffffffffffffffffffffffffffffffffffffff1614613a0d57613a0c8482613e57565b5b5b5050505050565b6000808273ffffffffffffffffffffffffffffffffffffffff163b119050919050565b6001811115613b5857600073ffffffffffffffffffffffffffffffffffffffff168473ffffffffffffffffffffffffffffffffffffffff1614613acc5780600560008673ffffffffffffffffffffffffffffffffffffffff1673ffffffffffffffffffffffffffffffffffffffff1681526020019081526020016000206000828254613ac491906150bb565b925050819055505b600073ffffffffffffffffffffffffffffffffffffffff168373ffffffffffffffffffffffffffffffffffffffff1614613b575780600560008573ffffffffffffffffffffffffffffffffffffffff1673ffffffffffffffffffffffffffffffffffffffff1681526020019081526020016000206000828254613b4f9190614fda565b925050819055505b5b50505050565b600a80549050600b600083815260200190815260200160002081905550600a81908060018154018082558091505060019003906000526020600020016000909190919091505550565b60006001613bb484610ef6565b613bbe91906150bb565b9050600060096000848152602001908152602001600020549050818114613ca3576000600860008673ffffffffffffffffffffffffffffffffffffffff1673ffffffffffffffffffffffffffffffffffffffff168152602001908152602001600020600084815260200190815260200160002054905080600860008773ffffffffffffffffffffffffffffffffffffffff1673ffffffffffffffffffffffffffffffffffffffff168152602001908152602001600020600084815260200190815260200160002081905550816009600083815260200190815260200160002081905550505b6009600084815260200190815260200160002060009055600860008573ffffffffffffffffffffffffffffffffffffffff1673ffffffffffffffffffffffffffffffffffffffff16815260200190815260200160002060008381526020019081526020016000206000905550505050565b60006001600a80549050613d2891906150bb565b90506000600b60008481526020019081526020016000205490506000600a8381548110613d7e577f4e487b7100000000000000000000000000000000000000000000000000000000600052603260045260246000fd5b9060005260206000200154905080600a8381548110613dc6577f4e487b7100000000000000000000000000000000000000000000000000000000600052603260045260246000fd5b906000526020600020018190555081600b600083815260200190815260200160002081905550600b600085815260200190815260200160002060009055600a805480613e3b577f4e487b7100000000000000000000000000000000000000000000000000000000600052603160045260246000fd5b6001900381819060005260206000200160009055905550505050565b6000613e6283610ef6565b905081600860008573ffffffffffffffffffffffffffffffffffffffff1673ffffffffffffffffffffffffffffffffffffffff168152602001908152602001600020600083815260200190815260200160002081905550806009600084815260200190815260200160002081905550505050565b828054613ee29061526b565b90600052602060002090601f016020900481019282613f045760008555613f4b565b82601f10613f1d57805160ff1916838001178555613f4b565b82800160010185558215613f4b579182015b82811115613f4a578251825591602001919060010190613f2f565b5b509050613f589190613f5c565b5090565b5b80821115613f75576000816000905550600101613f5d565b5090565b6000613f8c613f8784614f51565b614f2c565b905082815260208101848484011115613fa457600080fd5b613faf848285615229565b509392505050565b600081359050613fc681615a71565b92915050565b600081519050613fdb81615a71565b92915050565b600081359050613ff081615a88565b92915050565b60008151905061400581615a88565b92915050565b60008135905061401a81615a9f565b92915050565b60008151905061402f81615a9f565b92915050565b600082601f83011261404657600080fd5b8135614056848260208601613f79565b91505092915050565b60008135905061406e81615ab6565b92915050565b60008151905061408381615ab6565b92915050565b60006020828403121561409b57600080fd5b60006140a984828501613fb7565b91505092915050565b6000602082840312156140c457600080fd5b60006140d284828501613fcc565b91505092915050565b600080604083850312156140ee57600080fd5b60006140fc85828601613fb7565b925050602061410d85828601613fb7565b9150509250929050565b60008060006060848603121561412c57600080fd5b600061413a86828701613fb7565b935050602061414b86828701613fb7565b925050604061415c8682870161405f565b9150509250925092565b6000806000806080858703121561417c57600080fd5b600061418a87828801613fb7565b945050602061419b87828801613fb7565b93505060406141ac8782880161405f565b925050606085013567ffffffffffffffff8111156141c957600080fd5b6141d587828801614035565b91505092959194509250565b600080604083850312156141f457600080fd5b600061420285828601613fb7565b925050602061421385828601613fe1565b9150509250929050565b6000806040838503121561423057600080fd5b600061423e85828601613fb7565b925050602061424f8582860161405f565b9150509250929050565b60006020828403121561426b57600080fd5b600061427984828501613ff6565b91505092915050565b60006020828403121561429457600080fd5b60006142a28482850161400b565b91505092915050565b6000602082840312156142bd57600080fd5b60006142cb84828501614020565b91505092915050565b6000602082840312156142e657600080fd5b60006142f48482850161405f565b91505092915050565b60006020828403121561430f57600080fd5b600061431d84828501614074565b91505092915050565b6000806040838503121561433957600080fd5b60006143478582860161405f565b92505060206143588582860161405f565b9150509250929050565b61436b81615175565b82525050565b61437a81615101565b82525050565b614389816150ef565b82525050565b61439881615113565b82525050565b60006143a982614f97565b6143b38185614fad565b93506143c3818560208601615238565b6143cc816153d3565b840191505092915050565b6143e081615187565b82525050565b6143ef816151ab565b82525050565b6143fe816151cf565b82525050565b61440d816151f3565b82525050565b600061441e82614fa2565b6144288185614fbe565b9350614438818560208601615238565b614441816153d3565b840191505092915050565b600061445782614fa2565b6144618185614fcf565b9350614471818560208601615238565b80840191505092915050565b6000815461448a8161526b565b6144948186614fcf565b945060018216600081146144af57600181146144c0576144f3565b60ff198316865281860193506144f3565b6144c985614f82565b60005b838110156144eb578154818901526001820191506020810190506144cc565b838801955050505b50505092915050565b6000614509601683614fbe565b9150614514826153e4565b602082019050919050565b600061452c602d83614fbe565b91506145378261540d565b604082019050919050565b600061454f602b83614fbe565b915061455a8261545c565b604082019050919050565b6000614572602983614fbe565b915061457d826154ab565b604082019050919050565b6000614595603283614fbe565b91506145a0826154fa565b604082019050919050565b60006145b8602683614fbe565b91506145c382615549565b604082019050919050565b60006145db602583614fbe565b91506145e682615598565b604082019050919050565b60006145fe601c83614fbe565b9150614609826155e7565b602082019050919050565b6000614621602583614fbe565b915061462c82615610565b604082019050919050565b6000614644601a83614fbe565b915061464f8261565f565b602082019050919050565b6000614667602483614fbe565b915061467282615688565b604082019050919050565b600061468a601283614fbe565b9150614695826156d7565b602082019050919050565b60006146ad601983614fbe565b91506146b882615700565b602082019050919050565b60006146d0601383614fbe565b91506146db82615729565b602082019050919050565b60006146f3602983614fbe565b91506146fe82615752565b604082019050919050565b6000614716601d83614fbe565b9150614721826157a1565b602082019050919050565b6000614739601283614fbe565b9150614744826157ca565b602082019050919050565b600061475c602e83614fbe565b9150614767826157f3565b604082019050919050565b600061477f602083614fbe565b915061478a82615842565b602082019050919050565b60006147a2602083614fbe565b91506147ad8261586b565b602082019050919050565b60006147c5601883614fbe565b91506147d082615894565b602082019050919050565b60006147e8602183614fbe565b91506147f3826158bd565b604082019050919050565b600061480b603d83614fbe565b91506148168261590c565b604082019050919050565b600061482e602c83614fbe565b91506148398261595b565b604082019050919050565b6000614851603583614fbe565b915061485c826159aa565b604082019050919050565b6000614874601f83614fbe565b915061487f826159f9565b602082019050919050565b6000614897602383614fbe565b91506148a282615a22565b604082019050919050565b6148b68161516b565b82525050565b60006148c8828561444c565b91506148d4828461444c565b91508190509392505050565b60006148ec828661447d565b91506148f8828561444c565b9150614904828461447d565b9150819050949350505050565b60006020820190506149266000830184614380565b92915050565b60006020820190506149416000830184614371565b92915050565b600060408201905061495c6000830185614380565b6149696020830184614380565b9392505050565b60006060820190506149856000830186614380565b6149926020830185614362565b61499f60408301846148ad565b949350505050565b60006060820190506149bc6000830186614380565b6149c96020830185614380565b6149d660408301846148ad565b949350505050565b60006080820190506149f36000830187614380565b614a006020830186614380565b614a0d60408301856148ad565b8181036060830152614a1f818461439e565b905095945050505050565b6000604082019050614a3f6000830185614380565b614a4c60208301846148ad565b9392505050565b6000602082019050614a68600083018461438f565b92915050565b6000602082019050614a8360008301846143e6565b92915050565b6000602082019050614a9e60008301846143f5565b92915050565b60006020820190508181036000830152614abe8184614413565b905092915050565b60006020820190508181036000830152614adf816144fc565b9050919050565b60006020820190508181036000830152614aff8161451f565b9050919050565b60006020820190508181036000830152614b1f81614542565b9050919050565b60006020820190508181036000830152614b3f81614565565b9050919050565b60006020820190508181036000830152614b5f81614588565b9050919050565b60006020820190508181036000830152614b7f816145ab565b9050919050565b60006020820190508181036000830152614b9f816145ce565b9050919050565b60006020820190508181036000830152614bbf816145f1565b9050919050565b60006020820190508181036000830152614bdf81614614565b9050919050565b60006020820190508181036000830152614bff81614637565b9050919050565b60006020820190508181036000830152614c1f8161465a565b9050919050565b60006020820190508181036000830152614c3f8161467d565b9050919050565b60006020820190508181036000830152614c5f816146a0565b9050919050565b60006020820190508181036000830152614c7f816146c3565b9050919050565b60006020820190508181036000830152614c9f816146e6565b9050919050565b60006020820190508181036000830152614cbf81614709565b9050919050565b60006020820190508181036000830152614cdf8161472c565b9050919050565b60006020820190508181036000830152614cff8161474f565b9050919050565b60006020820190508181036000830152614d1f81614772565b9050919050565b60006020820190508181036000830152614d3f81614795565b9050919050565b60006020820190508181036000830152614d5f816147b8565b9050919050565b60006020820190508181036000830152614d7f816147db565b9050919050565b60006020820190508181036000830152614d9f816147fe565b9050919050565b60006020820190508181036000830152614dbf81614821565b9050919050565b60006020820190508181036000830152614ddf81614844565b9050919050565b60006020820190508181036000830152614dff81614867565b9050919050565b60006020820190508181036000830152614e1f8161488a565b9050919050565b6000602082019050614e3b60008301846148ad565b92915050565b6000608082019050614e5660008301876148ad565b614e6360208301866148ad565b614e706040830185614404565b614e7d606083018461438f565b95945050505050565b600060c082019050614e9b60008301896148ad565b614ea860208301886148ad565b614eb560408301876148ad565b614ec26060830186614371565b614ecf60808301856143d7565b614edc60a083018461438f565b979650505050505050565b6000608082019050614efc60008301876148ad565b614f0960208301866148ad565b614f1660408301856148ad565b614f23606083018461438f565b95945050505050565b6000614f36614f47565b9050614f42828261529d565b919050565b6000604051905090565b600067ffffffffffffffff821115614f6c57614f6b6153a4565b5b614f75826153d3565b9050602081019050919050565b60008190508160005260206000209050919050565b600081519050919050565b600081519050919050565b600082825260208201905092915050565b600082825260208201905092915050565b600081905092915050565b6000614fe58261516b565b9150614ff08361516b565b9250827fffffffffffffffffffffffffffffffffffffffffffffffffffffffffffffffff0382111561502557615024615317565b5b828201905092915050565b600061503b8261516b565b91506150468361516b565b92508261505657615055615346565b5b828204905092915050565b600061506c8261516b565b91506150778361516b565b9250817fffffffffffffffffffffffffffffffffffffffffffffffffffffffffffffffff04831182151516156150b0576150af615317565b5b828202905092915050565b60006150c68261516b565b91506150d18361516b565b9250828210156150e4576150e3615317565b5b828203905092915050565b60006150fa8261514b565b9050919050565b600061510c8261514b565b9050919050565b60008115159050919050565b60007fffffffff0000000000000000000000000000000000000000000000000000000082169050919050565b600073ffffffffffffffffffffffffffffffffffffffff82169050919050565b6000819050919050565b600061518082615205565b9050919050565b600061519282615199565b9050919050565b60006151a48261514b565b9050919050565b60006151b6826151bd565b9050919050565b60006151c88261514b565b9050919050565b60006151da826151e1565b9050919050565b60006151ec8261514b565b9050919050565b60006151fe8261516b565b9050919050565b600061521082615217565b9050919050565b60006152228261514b565b9050919050565b82818337600083830152505050565b60005b8381101561525657808201518184015260208101905061523b565b83811115615265576000848401525b50505050565b6000600282049050600182168061528357607f821691505b6020821081141561529757615296615375565b5b50919050565b6152a6826153d3565b810181811067ffffffffffffffff821117156152c5576152c46153a4565b5b80604052505050565b60006152d98261516b565b91507fffffffffffffffffffffffffffffffffffffffffffffffffffffffffffffffff82141561530c5761530b615317565b5b600182019050919050565b7f4e487b7100000000000000000000000000000000000000000000000000000000600052601160045260246000fd5b7f4e487b7100000000000000000000000000000000000000000000000000000000600052601260045260246000fd5b7f4e487b7100000000000000000000000000000000000000000000000000000000600052602260045260246000fd5b7f4e487b7100000000000000000000000000000000000000000000000000000000600052604160045260246000fd5b6000601f19601f8301169050919050565b7f596f7520617265206e6f7420746865206f776e65722100000000000000000000600082015250565b7f4552433732313a2063616c6c6572206973206e6f7420746f6b656e206f776e6560008201527f72206f7220617070726f76656400000000000000000000000000000000000000602082015250565b7f455243373231456e756d657261626c653a206f776e657220696e646578206f7560008201527f74206f6620626f756e6473000000000000000000000000000000000000000000602082015250565b7f4d61726b6574706c616365206e6f7420617070726f76656420746f207472616e60008201527f73666572204e4654210000000000000000000000000000000000000000000000602082015250565b7f4552433732313a207472616e7366657220746f206e6f6e20455243373231526560008201527f63656976657220696d706c656d656e7465720000000000000000000000000000602082015250565b7f4f776e61626c653a206e6577206f776e657220697320746865207a65726f206160008201527f6464726573730000000000000000000000000000000000000000000000000000602082015250565b7f4552433732313a207472616e736665722066726f6d20696e636f72726563742060008201527f6f776e6572000000000000000000000000000000000000000000000000000000602082015250565b7f4552433732313a20746f6b656e20616c7265616479206d696e74656400000000600082015250565b7f7478206661696c65642c206e6f7420656e6f75676820746f6b656e732070726f60008201527f7669646564000000000000000000000000000000000000000000000000000000602082015250565b7f596f752061726520616c726561647920746865206f776e657221000000000000600082015250565b7f4552433732313a207472616e7366657220746f20746865207a65726f2061646460008201527f7265737300000000000000000000000000000000000000000000000000000000602082015250565b7f6974656d206e6f7420666f722073616c65210000000000000000000000000000600082015250565b7f4552433732313a20617070726f766520746f2063616c6c657200000000000000600082015250565b7f6974656d20646f65736e27742065786973742100000000000000000000000000600082015250565b7f4552433732313a2061646472657373207a65726f206973206e6f74206120766160008201527f6c6964206f776e65720000000000000000000000000000000000000000000000602082015250565b7f6974656d20616c7265616479206c697374656420666f722073616c6521000000600082015250565b7f737570706c79206d696e746564206f7574210000000000000000000000000000600082015250565b7f45524337323155524953746f726167653a2055524920736574206f66206e6f6e60008201527f6578697374656e7420746f6b656e000000000000000000000000000000000000602082015250565b7f4552433732313a206d696e7420746f20746865207a65726f2061646472657373600082015250565b7f4f776e61626c653a2063616c6c6572206973206e6f7420746865206f776e6572600082015250565b7f4552433732313a20696e76616c696420746f6b656e2049440000000000000000600082015250565b7f4552433732313a20617070726f76616c20746f2063757272656e74206f776e6560008201527f7200000000000000000000000000000000000000000000000000000000000000602082015250565b7f4552433732313a20617070726f76652063616c6c6572206973206e6f7420746f60008201527f6b656e206f776e6572206f7220617070726f76656420666f7220616c6c000000602082015250565b7f455243373231456e756d657261626c653a20676c6f62616c20696e646578206f60008201527f7574206f6620626f756e64730000000000000000000000000000000000000000602082015250565b7f455243373231456e756d657261626c653a20636f6e736563757469766520747260008201527f616e7366657273206e6f7420737570706f727465640000000000000000000000602082015250565b7f5265656e7472616e637947756172643a207265656e7472616e742063616c6c00600082015250565b7f6e6f7420656e6f75676820244c494d4520696e2077616c6c657420746f206d6960008201527f6e74210000000000000000000000000000000000000000000000000000000000602082015250565b615a7a816150ef565b8114615a8557600080fd5b50565b615a9181615113565b8114615a9c57600080fd5b50565b615aa88161511f565b8114615ab357600080fd5b50565b615abf8161516b565b8114615aca57600080fd5b5056fea2646970667358221220a5a3b4a19ca49ee20c62f2eabacf84e1583ea210d9a246bd43598eab3e91b7b864736f6c6343000804003368747470733a2f2f676174657761792e70696e6174612e636c6f75642f697066732f516d63463670687636377076474b78634e4b687a62526533447a473244646666337146766d48735555547a7868752f",
  "linkReferences": {},
  "deployedLinkReferences": {}
}